{
  "_format": "hh-sol-artifact-1",
  "contractName": "InvoiceNFT",
  "sourceName": "contracts/InvoiceNFT.sol",
  "abi": [
    {
      "inputs": [],
      "stateMutability": "nonpayable",
      "type": "constructor"
    },
    {
      "inputs": [
        {
          "internalType": "address",
          "name": "sender",
          "type": "address"
        },
        {
          "internalType": "uint256",
          "name": "tokenId",
          "type": "uint256"
        },
        {
          "internalType": "address",
          "name": "owner",
          "type": "address"
        }
      ],
      "name": "ERC721IncorrectOwner",
      "type": "error"
    },
    {
      "inputs": [
        {
          "internalType": "address",
          "name": "operator",
          "type": "address"
        },
        {
          "internalType": "uint256",
          "name": "tokenId",
          "type": "uint256"
        }
      ],
      "name": "ERC721InsufficientApproval",
      "type": "error"
    },
    {
      "inputs": [
        {
          "internalType": "address",
          "name": "approver",
          "type": "address"
        }
      ],
      "name": "ERC721InvalidApprover",
      "type": "error"
    },
    {
      "inputs": [
        {
          "internalType": "address",
          "name": "operator",
          "type": "address"
        }
      ],
      "name": "ERC721InvalidOperator",
      "type": "error"
    },
    {
      "inputs": [
        {
          "internalType": "address",
          "name": "owner",
          "type": "address"
        }
      ],
      "name": "ERC721InvalidOwner",
      "type": "error"
    },
    {
      "inputs": [
        {
          "internalType": "address",
          "name": "receiver",
          "type": "address"
        }
      ],
      "name": "ERC721InvalidReceiver",
      "type": "error"
    },
    {
      "inputs": [
        {
          "internalType": "address",
          "name": "sender",
          "type": "address"
        }
      ],
      "name": "ERC721InvalidSender",
      "type": "error"
    },
    {
      "inputs": [
        {
          "internalType": "uint256",
          "name": "tokenId",
          "type": "uint256"
        }
      ],
      "name": "ERC721NonexistentToken",
      "type": "error"
    },
    {
      "anonymous": false,
      "inputs": [
        {
          "indexed": true,
          "internalType": "address",
          "name": "owner",
          "type": "address"
        },
        {
          "indexed": true,
          "internalType": "address",
          "name": "approved",
          "type": "address"
        },
        {
          "indexed": true,
          "internalType": "uint256",
          "name": "tokenId",
          "type": "uint256"
        }
      ],
      "name": "Approval",
      "type": "event"
    },
    {
      "anonymous": false,
      "inputs": [
        {
          "indexed": true,
          "internalType": "address",
          "name": "owner",
          "type": "address"
        },
        {
          "indexed": true,
          "internalType": "address",
          "name": "operator",
          "type": "address"
        },
        {
          "indexed": false,
          "internalType": "bool",
          "name": "approved",
          "type": "bool"
        }
      ],
      "name": "ApprovalForAll",
      "type": "event"
    },
    {
      "anonymous": false,
      "inputs": [
        {
          "indexed": false,
          "internalType": "uint256",
          "name": "tokenId",
          "type": "uint256"
        },
        {
          "indexed": false,
          "internalType": "uint256",
          "name": "billAmount",
          "type": "uint256"
        },
        {
          "indexed": false,
          "internalType": "string",
          "name": "token",
          "type": "string"
        },
        {
          "indexed": false,
          "internalType": "uint256",
          "name": "createdAt",
          "type": "uint256"
        },
        {
          "indexed": false,
          "internalType": "uint256",
          "name": "dueDate",
          "type": "uint256"
        },
        {
          "indexed": false,
          "internalType": "string",
          "name": "uniqueId",
          "type": "string"
        },
        {
          "indexed": false,
          "internalType": "string",
          "name": "buyer",
          "type": "string"
        },
        {
          "indexed": false,
          "internalType": "string",
          "name": "seller",
          "type": "string"
        },
        {
          "indexed": false,
          "internalType": "address",
          "name": "payer",
          "type": "address"
        },
        {
          "indexed": false,
          "internalType": "address",
          "name": "payee",
          "type": "address"
        },
        {
          "indexed": false,
          "internalType": "string",
          "name": "status",
          "type": "string"
        }
      ],
      "name": "InvoiceMinted",
      "type": "event"
    },
    {
      "anonymous": false,
      "inputs": [
        {
          "indexed": true,
          "internalType": "address",
          "name": "from",
          "type": "address"
        },
        {
          "indexed": true,
          "internalType": "address",
          "name": "to",
          "type": "address"
        },
        {
          "indexed": true,
          "internalType": "uint256",
          "name": "tokenId",
          "type": "uint256"
        }
      ],
      "name": "Transfer",
      "type": "event"
    },
    {
      "inputs": [
        {
          "internalType": "address",
          "name": "to",
          "type": "address"
        },
        {
          "internalType": "uint256",
          "name": "tokenId",
          "type": "uint256"
        }
      ],
      "name": "approve",
      "outputs": [],
      "stateMutability": "nonpayable",
      "type": "function"
    },
    {
      "inputs": [
        {
          "internalType": "address",
          "name": "owner",
          "type": "address"
        }
      ],
      "name": "balanceOf",
      "outputs": [
        {
          "internalType": "uint256",
          "name": "",
          "type": "uint256"
        }
      ],
      "stateMutability": "view",
      "type": "function"
    },
    {
      "inputs": [
        {
          "internalType": "uint256",
          "name": "tokenId",
          "type": "uint256"
        }
      ],
      "name": "getApproved",
      "outputs": [
        {
          "internalType": "address",
          "name": "",
          "type": "address"
        }
      ],
      "stateMutability": "view",
      "type": "function"
    },
    {
      "inputs": [
        {
          "internalType": "uint256",
          "name": "",
          "type": "uint256"
        }
      ],
      "name": "invoices",
      "outputs": [
        {
          "internalType": "uint256",
          "name": "billAmount",
          "type": "uint256"
        },
        {
          "internalType": "string",
          "name": "token",
          "type": "string"
        },
        {
          "internalType": "uint256",
          "name": "createdAt",
          "type": "uint256"
        },
        {
          "internalType": "uint256",
          "name": "dueDate",
          "type": "uint256"
        },
        {
          "internalType": "string",
          "name": "uniqueId",
          "type": "string"
        },
        {
          "internalType": "string",
          "name": "buyer",
          "type": "string"
        },
        {
          "internalType": "string",
          "name": "seller",
          "type": "string"
        },
        {
          "internalType": "address",
          "name": "payer",
          "type": "address"
        },
        {
          "internalType": "address",
          "name": "payee",
          "type": "address"
        },
        {
          "internalType": "string",
          "name": "status",
          "type": "string"
        }
      ],
      "stateMutability": "view",
      "type": "function"
    },
    {
      "inputs": [
        {
          "internalType": "address",
          "name": "owner",
          "type": "address"
        },
        {
          "internalType": "address",
          "name": "operator",
          "type": "address"
        }
      ],
      "name": "isApprovedForAll",
      "outputs": [
        {
          "internalType": "bool",
          "name": "",
          "type": "bool"
        }
      ],
      "stateMutability": "view",
      "type": "function"
    },
    {
      "inputs": [
        {
          "internalType": "address",
          "name": "to",
          "type": "address"
        },
        {
          "internalType": "uint256",
          "name": "billAmount",
          "type": "uint256"
        },
        {
          "internalType": "string",
          "name": "token",
          "type": "string"
        },
        {
          "internalType": "uint256",
          "name": "dueDate",
          "type": "uint256"
        },
        {
          "internalType": "string",
          "name": "uniqueId",
          "type": "string"
        },
        {
          "internalType": "string",
          "name": "buyer",
          "type": "string"
        },
        {
          "internalType": "string",
          "name": "seller",
          "type": "string"
        },
        {
          "internalType": "address",
          "name": "payer",
          "type": "address"
        },
        {
          "internalType": "address",
          "name": "payee",
          "type": "address"
        },
        {
          "internalType": "string",
          "name": "status",
          "type": "string"
        }
      ],
      "name": "mintInvoice",
      "outputs": [],
      "stateMutability": "nonpayable",
      "type": "function"
    },
    {
      "inputs": [],
      "name": "name",
      "outputs": [
        {
          "internalType": "string",
          "name": "",
          "type": "string"
        }
      ],
      "stateMutability": "view",
      "type": "function"
    },
    {
      "inputs": [
        {
          "internalType": "uint256",
          "name": "tokenId",
          "type": "uint256"
        }
      ],
      "name": "ownerOf",
      "outputs": [
        {
          "internalType": "address",
          "name": "",
          "type": "address"
        }
      ],
      "stateMutability": "view",
      "type": "function"
    },
    {
      "inputs": [
        {
          "internalType": "address",
          "name": "from",
          "type": "address"
        },
        {
          "internalType": "address",
          "name": "to",
          "type": "address"
        },
        {
          "internalType": "uint256",
          "name": "tokenId",
          "type": "uint256"
        }
      ],
      "name": "safeTransferFrom",
      "outputs": [],
      "stateMutability": "nonpayable",
      "type": "function"
    },
    {
      "inputs": [
        {
          "internalType": "address",
          "name": "from",
          "type": "address"
        },
        {
          "internalType": "address",
          "name": "to",
          "type": "address"
        },
        {
          "internalType": "uint256",
          "name": "tokenId",
          "type": "uint256"
        },
        {
          "internalType": "bytes",
          "name": "data",
          "type": "bytes"
        }
      ],
      "name": "safeTransferFrom",
      "outputs": [],
      "stateMutability": "nonpayable",
      "type": "function"
    },
    {
      "inputs": [
        {
          "internalType": "address",
          "name": "operator",
          "type": "address"
        },
        {
          "internalType": "bool",
          "name": "approved",
          "type": "bool"
        }
      ],
      "name": "setApprovalForAll",
      "outputs": [],
      "stateMutability": "nonpayable",
      "type": "function"
    },
    {
      "inputs": [
        {
          "internalType": "bytes4",
          "name": "interfaceId",
          "type": "bytes4"
        }
      ],
      "name": "supportsInterface",
      "outputs": [
        {
          "internalType": "bool",
          "name": "",
          "type": "bool"
        }
      ],
      "stateMutability": "view",
      "type": "function"
    },
    {
      "inputs": [],
      "name": "symbol",
      "outputs": [
        {
          "internalType": "string",
          "name": "",
          "type": "string"
        }
      ],
      "stateMutability": "view",
      "type": "function"
    },
    {
      "inputs": [],
      "name": "tokenIdCounter",
      "outputs": [
        {
          "internalType": "uint256",
          "name": "",
          "type": "uint256"
        }
      ],
      "stateMutability": "view",
      "type": "function"
    },
    {
      "inputs": [
        {
          "internalType": "uint256",
          "name": "tokenId",
          "type": "uint256"
        }
      ],
      "name": "tokenURI",
      "outputs": [
        {
          "internalType": "string",
          "name": "",
          "type": "string"
        }
      ],
      "stateMutability": "view",
      "type": "function"
    },
    {
      "inputs": [
        {
          "internalType": "address",
          "name": "from",
          "type": "address"
        },
        {
          "internalType": "address",
          "name": "to",
          "type": "address"
        },
        {
          "internalType": "uint256",
          "name": "tokenId",
          "type": "uint256"
        }
      ],
      "name": "transferFrom",
      "outputs": [],
      "stateMutability": "nonpayable",
      "type": "function"
    }
  ],
  "bytecode": "0x60806040523480156200001157600080fd5b506040518060400160405280600a81526020017f496e766f6963654e4654000000000000000000000000000000000000000000008152506040518060400160405280600481526020017f494e46540000000000000000000000000000000000000000000000000000000081525081600090816200008f919062000324565b508060019081620000a1919062000324565b5050506200040b565b600081519050919050565b7f4e487b7100000000000000000000000000000000000000000000000000000000600052604160045260246000fd5b7f4e487b7100000000000000000000000000000000000000000000000000000000600052602260045260246000fd5b600060028204905060018216806200012c57607f821691505b602082108103620001425762000141620000e4565b5b50919050565b60008190508160005260206000209050919050565b60006020601f8301049050919050565b600082821b905092915050565b600060088302620001ac7fffffffffffffffffffffffffffffffffffffffffffffffffffffffffffffffff826200016d565b620001b886836200016d565b95508019841693508086168417925050509392505050565b6000819050919050565b6000819050919050565b600062000205620001ff620001f984620001d0565b620001da565b620001d0565b9050919050565b6000819050919050565b6200022183620001e4565b6200023962000230826200020c565b8484546200017a565b825550505050565b600090565b6200025062000241565b6200025d81848462000216565b505050565b5b8181101562000285576200027960008262000246565b60018101905062000263565b5050565b601f821115620002d4576200029e8162000148565b620002a9846200015d565b81016020851015620002b9578190505b620002d1620002c8856200015d565b83018262000262565b50505b505050565b600082821c905092915050565b6000620002f960001984600802620002d9565b1980831691505092915050565b6000620003148383620002e6565b9150826002028217905092915050565b6200032f82620000aa565b67ffffffffffffffff8111156200034b576200034a620000b5565b5b62000357825462000113565b6200036482828562000289565b600060209050601f8311600181146200039c576000841562000387578287015190505b62000393858262000306565b86555062000403565b601f198416620003ac8662000148565b60005b82811015620003d657848901518255600182019150602085019450602081019050620003af565b86831015620003f65784890151620003f2601f891682620002e6565b8355505b6001600288020188555050505b505050505050565b612b10806200041b6000396000f3fe608060405234801561001057600080fd5b50600436106101005760003560e01c806370a0823111610097578063a7fac59b11610066578063a7fac59b146102c8578063b88d4fde146102e4578063c87b56dd14610300578063e985e9c51461033057610100565b806370a082311461024057806395d89b411461027057806398bdf6f51461028e578063a22cb465146102ac57610100565b806323b872dd116100d357806323b872dd1461019f57806342842e0e146101bb5780634e6d1405146101d75780636352211e1461021057610100565b806301ffc9a71461010557806306fdde0314610135578063081812fc14610153578063095ea7b314610183575b600080fd5b61011f600480360381019061011a9190611c3a565b610360565b60405161012c9190611c82565b60405180910390f35b61013d610442565b60405161014a9190611d2d565b60405180910390f35b61016d60048036038101906101689190611d85565b6104d4565b60405161017a9190611df3565b60405180910390f35b61019d60048036038101906101989190611e3a565b6104f0565b005b6101b960048036038101906101b49190611e7a565b610506565b005b6101d560048036038101906101d09190611e7a565b610608565b005b6101f160048036038101906101ec9190611d85565b610628565b6040516102079a99989796959493929190611edc565b60405180910390f35b61022a60048036038101906102259190611d85565b610964565b6040516102379190611df3565b60405180910390f35b61025a60048036038101906102559190611f9b565b610976565b6040516102679190611fc8565b60405180910390f35b610278610a30565b6040516102859190611d2d565b60405180910390f35b610296610ac2565b6040516102a39190611fc8565b60405180910390f35b6102c660048036038101906102c1919061200f565b610ac8565b005b6102e260048036038101906102dd9190612184565b610ade565b005b6102fe60048036038101906102f99190612390565b610d73565b005b61031a60048036038101906103159190611d85565b610d90565b6040516103279190611d2d565b60405180910390f35b61034a60048036038101906103459190612413565b610df9565b6040516103579190611c82565b60405180910390f35b60007f80ac58cd000000000000000000000000000000000000000000000000000000007bffffffffffffffffffffffffffffffffffffffffffffffffffffffff1916827bffffffffffffffffffffffffffffffffffffffffffffffffffffffff1916148061042b57507f5b5e139f000000000000000000000000000000000000000000000000000000007bffffffffffffffffffffffffffffffffffffffffffffffffffffffff1916827bffffffffffffffffffffffffffffffffffffffffffffffffffffffff1916145b8061043b575061043a82610e8d565b5b9050919050565b60606000805461045190612482565b80601f016020809104026020016040519081016040528092919081815260200182805461047d90612482565b80156104ca5780601f1061049f576101008083540402835291602001916104ca565b820191906000526020600020905b8154815290600101906020018083116104ad57829003601f168201915b5050505050905090565b60006104df82610ef7565b506104e982610f7f565b9050919050565b61050282826104fd610fbc565b610fc4565b5050565b600073ffffffffffffffffffffffffffffffffffffffff168273ffffffffffffffffffffffffffffffffffffffff16036105785760006040517f64a0ae9200000000000000000000000000000000000000000000000000000000815260040161056f9190611df3565b60405180910390fd5b600061058c8383610587610fbc565b610fd6565b90508373ffffffffffffffffffffffffffffffffffffffff168173ffffffffffffffffffffffffffffffffffffffff1614610602578382826040517f64283d7b0000000000000000000000000000000000000000000000000000000081526004016105f9939291906124b3565b60405180910390fd5b50505050565b61062383838360405180602001604052806000815250610d73565b505050565b600760205280600052604060002060009150905080600001549080600101805461065190612482565b80601f016020809104026020016040519081016040528092919081815260200182805461067d90612482565b80156106ca5780601f1061069f576101008083540402835291602001916106ca565b820191906000526020600020905b8154815290600101906020018083116106ad57829003601f168201915b5050505050908060020154908060030154908060040180546106eb90612482565b80601f016020809104026020016040519081016040528092919081815260200182805461071790612482565b80156107645780601f1061073957610100808354040283529160200191610764565b820191906000526020600020905b81548152906001019060200180831161074757829003601f168201915b50505050509080600501805461077990612482565b80601f01602080910402602001604051908101604052809291908181526020018280546107a590612482565b80156107f25780601f106107c7576101008083540402835291602001916107f2565b820191906000526020600020905b8154815290600101906020018083116107d557829003601f168201915b50505050509080600601805461080790612482565b80601f016020809104026020016040519081016040528092919081815260200182805461083390612482565b80156108805780601f1061085557610100808354040283529160200191610880565b820191906000526020600020905b81548152906001019060200180831161086357829003601f168201915b5050505050908060070160009054906101000a900473ffffffffffffffffffffffffffffffffffffffff16908060080160009054906101000a900473ffffffffffffffffffffffffffffffffffffffff16908060090180546108e190612482565b80601f016020809104026020016040519081016040528092919081815260200182805461090d90612482565b801561095a5780601f1061092f5761010080835404028352916020019161095a565b820191906000526020600020905b81548152906001019060200180831161093d57829003601f168201915b505050505090508a565b600061096f82610ef7565b9050919050565b60008073ffffffffffffffffffffffffffffffffffffffff168273ffffffffffffffffffffffffffffffffffffffff16036109e95760006040517f89c62b640000000000000000000000000000000000000000000000000000000081526004016109e09190611df3565b60405180910390fd5b600360008373ffffffffffffffffffffffffffffffffffffffff1673ffffffffffffffffffffffffffffffffffffffff168152602001908152602001600020549050919050565b606060018054610a3f90612482565b80601f0160208091040260200160405190810160405280929190818152602001828054610a6b90612482565b8015610ab85780601f10610a8d57610100808354040283529160200191610ab8565b820191906000526020600020905b815481529060010190602001808311610a9b57829003601f168201915b5050505050905090565b60065481565b610ada610ad3610fbc565b83836111f0565b5050565b898073ffffffffffffffffffffffffffffffffffffffff163373ffffffffffffffffffffffffffffffffffffffff1614610b4d576040517f08c379a0000000000000000000000000000000000000000000000000000000008152600401610b449061255c565b60405180910390fd5b60006006549050610b5e8c8261135f565b60066000815480929190610b71906125ab565b91905055506040518061014001604052808c81526020018b81526020014281526020018a81526020018981526020018881526020018781526020018673ffffffffffffffffffffffffffffffffffffffff1681526020018573ffffffffffffffffffffffffffffffffffffffff1681526020018481525060076000838152602001908152602001600020600082015181600001556020820151816001019081610c1a919061279f565b5060408201518160020155606082015181600301556080820151816004019081610c44919061279f565b5060a0820151816005019081610c5a919061279f565b5060c0820151816006019081610c70919061279f565b5060e08201518160070160006101000a81548173ffffffffffffffffffffffffffffffffffffffff021916908373ffffffffffffffffffffffffffffffffffffffff1602179055506101008201518160080160006101000a81548173ffffffffffffffffffffffffffffffffffffffff021916908373ffffffffffffffffffffffffffffffffffffffff160217905550610120820151816009019081610d16919061279f565b509050507f9e0f4c25dd4f52d4f101c6e92c8cf39f41d48c7ff0cb11ab1ff3e791b77a6cd2818c8c428d8d8d8d8d8d8d604051610d5d9b9a99989796959493929190612871565b60405180910390a1505050505050505050505050565b610d7e848484610506565b610d8a84848484611458565b50505050565b6060610d9b82610ef7565b506000610da661160f565b90506000815111610dc65760405180602001604052806000815250610df1565b80610dd084611626565b604051602001610de192919061297b565b6040516020818303038152906040525b915050919050565b6000600560008473ffffffffffffffffffffffffffffffffffffffff1673ffffffffffffffffffffffffffffffffffffffff16815260200190815260200160002060008373ffffffffffffffffffffffffffffffffffffffff1673ffffffffffffffffffffffffffffffffffffffff16815260200190815260200160002060009054906101000a900460ff16905092915050565b60007f01ffc9a7000000000000000000000000000000000000000000000000000000007bffffffffffffffffffffffffffffffffffffffffffffffffffffffff1916827bffffffffffffffffffffffffffffffffffffffffffffffffffffffff1916149050919050565b600080610f03836116f4565b9050600073ffffffffffffffffffffffffffffffffffffffff168173ffffffffffffffffffffffffffffffffffffffff1603610f7657826040517f7e273289000000000000000000000000000000000000000000000000000000008152600401610f6d9190611fc8565b60405180910390fd5b80915050919050565b60006004600083815260200190815260200160002060009054906101000a900473ffffffffffffffffffffffffffffffffffffffff169050919050565b600033905090565b610fd18383836001611731565b505050565b600080610fe2846116f4565b9050600073ffffffffffffffffffffffffffffffffffffffff168373ffffffffffffffffffffffffffffffffffffffff1614611024576110238184866118f6565b5b600073ffffffffffffffffffffffffffffffffffffffff168173ffffffffffffffffffffffffffffffffffffffff16146110b557611066600085600080611731565b6001600360008373ffffffffffffffffffffffffffffffffffffffff1673ffffffffffffffffffffffffffffffffffffffff168152602001908152602001600020600082825403925050819055505b600073ffffffffffffffffffffffffffffffffffffffff168573ffffffffffffffffffffffffffffffffffffffff1614611138576001600360008773ffffffffffffffffffffffffffffffffffffffff1673ffffffffffffffffffffffffffffffffffffffff168152602001908152602001600020600082825401925050819055505b846002600086815260200190815260200160002060006101000a81548173ffffffffffffffffffffffffffffffffffffffff021916908373ffffffffffffffffffffffffffffffffffffffff160217905550838573ffffffffffffffffffffffffffffffffffffffff168273ffffffffffffffffffffffffffffffffffffffff167fddf252ad1be2c89b69c2b068fc378daa952ba7f163c4a11628f55a4df523b3ef60405160405180910390a4809150509392505050565b600073ffffffffffffffffffffffffffffffffffffffff168273ffffffffffffffffffffffffffffffffffffffff160361126157816040517f5b08ba180000000000000000000000000000000000000000000000000000000081526004016112589190611df3565b60405180910390fd5b80600560008573ffffffffffffffffffffffffffffffffffffffff1673ffffffffffffffffffffffffffffffffffffffff16815260200190815260200160002060008473ffffffffffffffffffffffffffffffffffffffff1673ffffffffffffffffffffffffffffffffffffffff16815260200190815260200160002060006101000a81548160ff0219169083151502179055508173ffffffffffffffffffffffffffffffffffffffff168373ffffffffffffffffffffffffffffffffffffffff167f17307eab39ab6107e8899845ad3d59bd9653f200f220920489ca2b5937696c31836040516113529190611c82565b60405180910390a3505050565b600073ffffffffffffffffffffffffffffffffffffffff168273ffffffffffffffffffffffffffffffffffffffff16036113d15760006040517f64a0ae920000000000000000000000000000000000000000000000000000000081526004016113c89190611df3565b60405180910390fd5b60006113df83836000610fd6565b9050600073ffffffffffffffffffffffffffffffffffffffff168173ffffffffffffffffffffffffffffffffffffffff16146114535760006040517f73c6ac6e00000000000000000000000000000000000000000000000000000000815260040161144a9190611df3565b60405180910390fd5b505050565b60008373ffffffffffffffffffffffffffffffffffffffff163b1115611609578273ffffffffffffffffffffffffffffffffffffffff1663150b7a0261149c610fbc565b8685856040518563ffffffff1660e01b81526004016114be94939291906129f4565b6020604051808303816000875af19250505080156114fa57506040513d601f19601f820116820180604052508101906114f79190612a55565b60015b61157e573d806000811461152a576040519150601f19603f3d011682016040523d82523d6000602084013e61152f565b606091505b50600081510361157657836040517f64a0ae9200000000000000000000000000000000000000000000000000000000815260040161156d9190611df3565b60405180910390fd5b805181602001fd5b63150b7a0260e01b7bffffffffffffffffffffffffffffffffffffffffffffffffffffffff1916817bffffffffffffffffffffffffffffffffffffffffffffffffffffffff19161461160757836040517f64a0ae920000000000000000000000000000000000000000000000000000000081526004016115fe9190611df3565b60405180910390fd5b505b50505050565b606060405180602001604052806000815250905090565b606060006001611635846119ba565b01905060008167ffffffffffffffff81111561165457611653612059565b5b6040519080825280601f01601f1916602001820160405280156116865781602001600182028036833780820191505090505b509050600082602001820190505b6001156116e9578080600190039150507f3031323334353637383961626364656600000000000000000000000000000000600a86061a8153600a85816116dd576116dc612a82565b5b04945060008503611694575b819350505050919050565b60006002600083815260200190815260200160002060009054906101000a900473ffffffffffffffffffffffffffffffffffffffff169050919050565b808061176a5750600073ffffffffffffffffffffffffffffffffffffffff168273ffffffffffffffffffffffffffffffffffffffff1614155b1561189e57600061177a84610ef7565b9050600073ffffffffffffffffffffffffffffffffffffffff168373ffffffffffffffffffffffffffffffffffffffff16141580156117e557508273ffffffffffffffffffffffffffffffffffffffff168173ffffffffffffffffffffffffffffffffffffffff1614155b80156117f857506117f68184610df9565b155b1561183a57826040517fa9fbf51f0000000000000000000000000000000000000000000000000000000081526004016118319190611df3565b60405180910390fd5b811561189c57838573ffffffffffffffffffffffffffffffffffffffff168273ffffffffffffffffffffffffffffffffffffffff167f8c5be1e5ebec7d5bd14f71427d1e84f3dd0314c0f7b2291e5b200ac8c7c3b92560405160405180910390a45b505b836004600085815260200190815260200160002060006101000a81548173ffffffffffffffffffffffffffffffffffffffff021916908373ffffffffffffffffffffffffffffffffffffffff16021790555050505050565b611901838383611b0d565b6119b557600073ffffffffffffffffffffffffffffffffffffffff168373ffffffffffffffffffffffffffffffffffffffff160361197657806040517f7e27328900000000000000000000000000000000000000000000000000000000815260040161196d9190611fc8565b60405180910390fd5b81816040517f177e802f0000000000000000000000000000000000000000000000000000000081526004016119ac929190612ab1565b60405180910390fd5b505050565b600080600090507a184f03e93ff9f4daa797ed6e38ed64bf6a1f0100000000000000008310611a18577a184f03e93ff9f4daa797ed6e38ed64bf6a1f0100000000000000008381611a0e57611a0d612a82565b5b0492506040810190505b6d04ee2d6d415b85acef81000000008310611a55576d04ee2d6d415b85acef81000000008381611a4b57611a4a612a82565b5b0492506020810190505b662386f26fc100008310611a8457662386f26fc100008381611a7a57611a79612a82565b5b0492506010810190505b6305f5e1008310611aad576305f5e1008381611aa357611aa2612a82565b5b0492506008810190505b6127108310611ad2576127108381611ac857611ac7612a82565b5b0492506004810190505b60648310611af55760648381611aeb57611aea612a82565b5b0492506002810190505b600a8310611b04576001810190505b80915050919050565b60008073ffffffffffffffffffffffffffffffffffffffff168373ffffffffffffffffffffffffffffffffffffffff1614158015611bc557508273ffffffffffffffffffffffffffffffffffffffff168473ffffffffffffffffffffffffffffffffffffffff161480611b865750611b858484610df9565b5b80611bc457508273ffffffffffffffffffffffffffffffffffffffff16611bac83610f7f565b73ffffffffffffffffffffffffffffffffffffffff16145b5b90509392505050565b6000604051905090565b600080fd5b600080fd5b60007fffffffff0000000000000000000000000000000000000000000000000000000082169050919050565b611c1781611be2565b8114611c2257600080fd5b50565b600081359050611c3481611c0e565b92915050565b600060208284031215611c5057611c4f611bd8565b5b6000611c5e84828501611c25565b91505092915050565b60008115159050919050565b611c7c81611c67565b82525050565b6000602082019050611c976000830184611c73565b92915050565b600081519050919050565b600082825260208201905092915050565b60005b83811015611cd7578082015181840152602081019050611cbc565b60008484015250505050565b6000601f19601f8301169050919050565b6000611cff82611c9d565b611d098185611ca8565b9350611d19818560208601611cb9565b611d2281611ce3565b840191505092915050565b60006020820190508181036000830152611d478184611cf4565b905092915050565b6000819050919050565b611d6281611d4f565b8114611d6d57600080fd5b50565b600081359050611d7f81611d59565b92915050565b600060208284031215611d9b57611d9a611bd8565b5b6000611da984828501611d70565b91505092915050565b600073ffffffffffffffffffffffffffffffffffffffff82169050919050565b6000611ddd82611db2565b9050919050565b611ded81611dd2565b82525050565b6000602082019050611e086000830184611de4565b92915050565b611e1781611dd2565b8114611e2257600080fd5b50565b600081359050611e3481611e0e565b92915050565b60008060408385031215611e5157611e50611bd8565b5b6000611e5f85828601611e25565b9250506020611e7085828601611d70565b9150509250929050565b600080600060608486031215611e9357611e92611bd8565b5b6000611ea186828701611e25565b9350506020611eb286828701611e25565b9250506040611ec386828701611d70565b9150509250925092565b611ed681611d4f565b82525050565b600061014082019050611ef2600083018d611ecd565b8181036020830152611f04818c611cf4565b9050611f13604083018b611ecd565b611f20606083018a611ecd565b8181036080830152611f328189611cf4565b905081810360a0830152611f468188611cf4565b905081810360c0830152611f5a8187611cf4565b9050611f6960e0830186611de4565b611f77610100830185611de4565b818103610120830152611f8a8184611cf4565b90509b9a5050505050505050505050565b600060208284031215611fb157611fb0611bd8565b5b6000611fbf84828501611e25565b91505092915050565b6000602082019050611fdd6000830184611ecd565b92915050565b611fec81611c67565b8114611ff757600080fd5b50565b60008135905061200981611fe3565b92915050565b6000806040838503121561202657612025611bd8565b5b600061203485828601611e25565b925050602061204585828601611ffa565b9150509250929050565b600080fd5b600080fd5b7f4e487b7100000000000000000000000000000000000000000000000000000000600052604160045260246000fd5b61209182611ce3565b810181811067ffffffffffffffff821117156120b0576120af612059565b5b80604052505050565b60006120c3611bce565b90506120cf8282612088565b919050565b600067ffffffffffffffff8211156120ef576120ee612059565b5b6120f882611ce3565b9050602081019050919050565b82818337600083830152505050565b6000612127612122846120d4565b6120b9565b90508281526020810184848401111561214357612142612054565b5b61214e848285612105565b509392505050565b600082601f83011261216b5761216a61204f565b5b813561217b848260208601612114565b91505092915050565b6000806000806000806000806000806101408b8d0312156121a8576121a7611bd8565b5b60006121b68d828e01611e25565b9a505060206121c78d828e01611d70565b99505060408b013567ffffffffffffffff8111156121e8576121e7611bdd565b5b6121f48d828e01612156565b98505060606122058d828e01611d70565b97505060808b013567ffffffffffffffff81111561222657612225611bdd565b5b6122328d828e01612156565b96505060a08b013567ffffffffffffffff81111561225357612252611bdd565b5b61225f8d828e01612156565b95505060c08b013567ffffffffffffffff8111156122805761227f611bdd565b5b61228c8d828e01612156565b94505060e061229d8d828e01611e25565b9350506101006122af8d828e01611e25565b9250506101208b013567ffffffffffffffff8111156122d1576122d0611bdd565b5b6122dd8d828e01612156565b9150509295989b9194979a5092959850565b600067ffffffffffffffff82111561230a57612309612059565b5b61231382611ce3565b9050602081019050919050565b600061233361232e846122ef565b6120b9565b90508281526020810184848401111561234f5761234e612054565b5b61235a848285612105565b509392505050565b600082601f8301126123775761237661204f565b5b8135612387848260208601612320565b91505092915050565b600080600080608085870312156123aa576123a9611bd8565b5b60006123b887828801611e25565b94505060206123c987828801611e25565b93505060406123da87828801611d70565b925050606085013567ffffffffffffffff8111156123fb576123fa611bdd565b5b61240787828801612362565b91505092959194509250565b6000806040838503121561242a57612429611bd8565b5b600061243885828601611e25565b925050602061244985828601611e25565b9150509250929050565b7f4e487b7100000000000000000000000000000000000000000000000000000000600052602260045260246000fd5b6000600282049050600182168061249a57607f821691505b6020821081036124ad576124ac612453565b5b50919050565b60006060820190506124c86000830186611de4565b6124d56020830185611ecd565b6124e26040830184611de4565b949350505050565b7f43616c6c6572206973206e6f742074686520617574686f72697a65642061646460008201527f7265737300000000000000000000000000000000000000000000000000000000602082015250565b6000612546602483611ca8565b9150612551826124ea565b604082019050919050565b6000602082019050818103600083015261257581612539565b9050919050565b7f4e487b7100000000000000000000000000000000000000000000000000000000600052601160045260246000fd5b60006125b682611d4f565b91507fffffffffffffffffffffffffffffffffffffffffffffffffffffffffffffffff82036125e8576125e761257c565b5b600182019050919050565b60008190508160005260206000209050919050565b60006020601f8301049050919050565b600082821b905092915050565b6000600883026126557fffffffffffffffffffffffffffffffffffffffffffffffffffffffffffffffff82612618565b61265f8683612618565b95508019841693508086168417925050509392505050565b6000819050919050565b600061269c61269761269284611d4f565b612677565b611d4f565b9050919050565b6000819050919050565b6126b683612681565b6126ca6126c2826126a3565b848454612625565b825550505050565b600090565b6126df6126d2565b6126ea8184846126ad565b505050565b5b8181101561270e576127036000826126d7565b6001810190506126f0565b5050565b601f82111561275357612724816125f3565b61272d84612608565b8101602085101561273c578190505b61275061274885612608565b8301826126ef565b50505b505050565b600082821c905092915050565b600061277660001984600802612758565b1980831691505092915050565b600061278f8383612765565b9150826002028217905092915050565b6127a882611c9d565b67ffffffffffffffff8111156127c1576127c0612059565b5b6127cb8254612482565b6127d6828285612712565b600060209050601f83116001811461280957600084156127f7578287015190505b6128018582612783565b865550612869565b601f198416612817866125f3565b60005b8281101561283f5784890151825560018201915060208501945060208101905061281a565b8683101561285c5784890151612858601f891682612765565b8355505b6001600288020188555050505b505050505050565b600061016082019050612887600083018e611ecd565b612894602083018d611ecd565b81810360408301526128a6818c611cf4565b90506128b5606083018b611ecd565b6128c2608083018a611ecd565b81810360a08301526128d48189611cf4565b905081810360c08301526128e88188611cf4565b905081810360e08301526128fc8187611cf4565b905061290c610100830186611de4565b61291a610120830185611de4565b81810361014083015261292d8184611cf4565b90509c9b505050505050505050505050565b600081905092915050565b600061295582611c9d565b61295f818561293f565b935061296f818560208601611cb9565b80840191505092915050565b6000612987828561294a565b9150612993828461294a565b91508190509392505050565b600081519050919050565b600082825260208201905092915050565b60006129c68261299f565b6129d081856129aa565b93506129e0818560208601611cb9565b6129e981611ce3565b840191505092915050565b6000608082019050612a096000830187611de4565b612a166020830186611de4565b612a236040830185611ecd565b8181036060830152612a3581846129bb565b905095945050505050565b600081519050612a4f81611c0e565b92915050565b600060208284031215612a6b57612a6a611bd8565b5b6000612a7984828501612a40565b91505092915050565b7f4e487b7100000000000000000000000000000000000000000000000000000000600052601260045260246000fd5b6000604082019050612ac66000830185611de4565b612ad36020830184611ecd565b939250505056fea264697066735822122096804c35e5ea996a07b1c2dc980a8d4237a0653c356b5da9f67c7677649fe83564736f6c63430008140033",
  "linkReferences": {},
  "deployedLinkReferences": {}
}