{
	"_format": "hh-sol-artifact-1",
	"contractName": "InvoiceMarketplace",
	"sourceName": "contracts/InvoiceMarketplace.sol",
	"abi": [
		{
			"inputs": [
				{
					"internalType": "address",
					"name": "_invoiceNFT",
					"type": "address"
				}
			],
			"stateMutability": "nonpayable",
			"type": "constructor"
		},
		{
			"anonymous": false,
			"inputs": [
				{
					"indexed": true,
					"internalType": "uint256",
					"name": "tokenId",
					"type": "uint256"
				},
				{
					"indexed": true,
					"internalType": "address",
					"name": "seller",
					"type": "address"
				},
				{
					"indexed": false,
					"internalType": "uint256",
					"name": "minBid",
					"type": "uint256"
				},
				{
					"indexed": false,
					"internalType": "uint256",
					"name": "billAmount",
					"type": "uint256"
				},
				{
					"indexed": false,
					"internalType": "string",
					"name": "token",
					"type": "string"
				},
				{
					"indexed": false,
					"internalType": "uint256",
					"name": "dueDate",
					"type": "uint256"
				},
				{
					"indexed": false,
					"internalType": "string",
					"name": "uniqueId",
					"type": "string"
				},
				{
					"indexed": false,
					"internalType": "string",
					"name": "invoiceBuyer",
					"type": "string"
				},
				{
					"indexed": false,
					"internalType": "string",
					"name": "invoiceSeller",
					"type": "string"
				},
				{
					"indexed": false,
					"internalType": "address",
					"name": "payer",
					"type": "address"
				},
				{
					"indexed": false,
					"internalType": "address",
					"name": "payee",
					"type": "address"
				},
				{
					"indexed": false,
					"internalType": "string",
					"name": "status",
					"type": "string"
				}
			],
			"name": "InvoiceListed",
			"type": "event"
		},
		{
			"anonymous": false,
			"inputs": [
				{
					"indexed": true,
					"internalType": "uint256",
					"name": "tokenId",
					"type": "uint256"
				},
				{
					"indexed": true,
					"internalType": "address",
					"name": "buyer",
					"type": "address"
				},
				{
					"indexed": false,
					"internalType": "uint256",
					"name": "price",
					"type": "uint256"
				}
			],
			"name": "InvoicePurchased",
			"type": "event"
		},
		{
			"inputs": [
				{
					"internalType": "uint256",
					"name": "tokenId",
					"type": "uint256"
				}
			],
			"name": "getListing",
			"outputs": [
				{
					"components": [
						{
							"internalType": "uint256",
							"name": "tokenId",
							"type": "uint256"
						},
						{
							"internalType": "address",
							"name": "seller",
							"type": "address"
						},
						{
							"internalType": "uint256",
							"name": "minBid",
							"type": "uint256"
						},
						{
							"internalType": "bool",
							"name": "active",
							"type": "bool"
						},
						{
							"internalType": "uint256",
							"name": "billAmount",
							"type": "uint256"
						},
						{
							"internalType": "string",
							"name": "token",
							"type": "string"
						},
						{
							"internalType": "uint256",
							"name": "dueDate",
							"type": "uint256"
						},
						{
							"internalType": "string",
							"name": "uniqueId",
							"type": "string"
						},
						{
							"internalType": "string",
							"name": "invoiceBuyer",
							"type": "string"
						},
						{
							"internalType": "string",
							"name": "invoiceSeller",
							"type": "string"
						},
						{
							"internalType": "address",
							"name": "payer",
							"type": "address"
						},
						{
							"internalType": "address",
							"name": "payee",
							"type": "address"
						},
						{
							"internalType": "string",
							"name": "status",
							"type": "string"
						}
					],
					"internalType": "struct InvoiceMarketplace.Listing",
					"name": "",
					"type": "tuple"
				}
			],
			"stateMutability": "view",
			"type": "function"
		},
		{
			"inputs": [],
			"name": "getTotalListings",
			"outputs": [
				{
					"internalType": "uint256",
					"name": "",
					"type": "uint256"
				}
			],
			"stateMutability": "view",
			"type": "function"
		},
		{
			"inputs": [],
			"name": "invoiceNFT",
			"outputs": [
				{
					"internalType": "contract InvoiceNFT",
					"name": "",
					"type": "address"
				}
			],
			"stateMutability": "view",
			"type": "function"
		},
		{
			"inputs": [
				{
					"internalType": "uint256",
					"name": "",
					"type": "uint256"
				}
			],
			"name": "listings",
			"outputs": [
				{
					"internalType": "uint256",
					"name": "tokenId",
					"type": "uint256"
				},
				{
					"internalType": "address",
					"name": "seller",
					"type": "address"
				},
				{
					"internalType": "uint256",
					"name": "minBid",
					"type": "uint256"
				},
				{
					"internalType": "bool",
					"name": "active",
					"type": "bool"
				},
				{
					"internalType": "uint256",
					"name": "billAmount",
					"type": "uint256"
				},
				{
					"internalType": "string",
					"name": "token",
					"type": "string"
				},
				{
					"internalType": "uint256",
					"name": "dueDate",
					"type": "uint256"
				},
				{
					"internalType": "string",
					"name": "uniqueId",
					"type": "string"
				},
				{
					"internalType": "string",
					"name": "invoiceBuyer",
					"type": "string"
				},
				{
					"internalType": "string",
					"name": "invoiceSeller",
					"type": "string"
				},
				{
					"internalType": "address",
					"name": "payer",
					"type": "address"
				},
				{
					"internalType": "address",
					"name": "payee",
					"type": "address"
				},
				{
					"internalType": "string",
					"name": "status",
					"type": "string"
				}
			],
			"stateMutability": "view",
			"type": "function"
		},
		{
			"inputs": [
				{
					"internalType": "address",
					"name": "to",
					"type": "address"
				},
				{
					"internalType": "uint256",
					"name": "billAmount",
					"type": "uint256"
				},
				{
					"internalType": "string",
					"name": "token",
					"type": "string"
				},
				{
					"internalType": "uint256",
					"name": "dueDate",
					"type": "uint256"
				},
				{
					"internalType": "string",
					"name": "uniqueId",
					"type": "string"
				},
				{
					"internalType": "string",
					"name": "invoiceBuyer",
					"type": "string"
				},
				{
					"internalType": "string",
					"name": "invoiceSeller",
					"type": "string"
				},
				{
					"internalType": "address",
					"name": "payer",
					"type": "address"
				},
				{
					"internalType": "address",
					"name": "payee",
					"type": "address"
				},
				{
					"internalType": "string",
					"name": "status",
					"type": "string"
				},
				{
					"internalType": "uint256",
					"name": "minBid",
					"type": "uint256"
				}
			],
			"name": "mintAndListInvoice",
			"outputs": [],
			"stateMutability": "nonpayable",
			"type": "function"
		},
		{
			"inputs": [
				{
					"internalType": "address",
					"name": "",
					"type": "address"
				},
				{
					"internalType": "address",
					"name": "",
					"type": "address"
				},
				{
					"internalType": "uint256",
					"name": "",
					"type": "uint256"
				},
				{
					"internalType": "bytes",
					"name": "",
					"type": "bytes"
				}
			],
			"name": "onERC721Received",
			"outputs": [
				{
					"internalType": "bytes4",
					"name": "",
					"type": "bytes4"
				}
			],
			"stateMutability": "nonpayable",
			"type": "function"
		},
		{
			"inputs": [
				{
					"internalType": "uint256",
					"name": "tokenId",
					"type": "uint256"
				}
			],
			"name": "purchaseInvoice",
			"outputs": [],
			"stateMutability": "payable",
			"type": "function"
		},
		{
			"inputs": [],
			"name": "totalListings",
			"outputs": [
				{
					"internalType": "uint256",
					"name": "",
					"type": "uint256"
				}
			],
			"stateMutability": "view",
			"type": "function"
		}
	],
	"bytecode": "0x60803461007857601f6113c538819003918201601f19168301916001600160401b0383118484101761007d5780849260209460405283398101031261007857516001600160a01b0381169081900361007857600180546001600160a01b0319169190911790556000805560405161133190816100948239f35b600080fd5b634e487b7160e01b600052604160045260246000fdfe60c080604052600436101561001357600080fd5b60008060a052803560e01c918263107a274a14610ead57508163150b7a0214610e3e5781634bb6f06d14610e13578163b11f9d2214610cad578163c78b616c1461007d578163d85e55d0146101d557508063de74e57b146100a55763fbf30c351461007d57600080fd5b3461009f5760a0518060031936011261009c5760209054604051908152f35b80fd5b60a05180fd5b3461009f57602036600319011261009f5760043560a05152600260205260a051604090208054600160a01b60019003918260018201541692600282015491600381015460ff166004820154600583016100fd90611255565b600684015461010e60078601611255565b9161011b60088701611255565b9361012860098801611255565b9588600a8901541698600b8901541697600c0161014490611255565b996040519c8d9c8d5260208d015260408c0152151560608b015260808a01526101a08060a08b01528901610177916110f6565b9060c089015287810360e089015261018e916110f6565b8681036101008801526101a0916110f6565b8581036101208701526101b2916110f6565b916101408501526101608401528281036101808401526101d1916110f6565b0390f35b3461009f5761016036600319011261009f576101ef611136565b6044356001600160401b03811161009f5761020e9036906004016111fd565b6084356001600160401b03811161009f5761022d9036906004016111fd565b9160a4356001600160401b03811161009f5761024d9036906004016111fd565b9360c4356001600160401b03811161009f5761026d9036906004016111fd565b60e435956001600160a01b0387168703610ca95761010435926001600160a01b038416840361009c5750610124356001600160401b03811161009f576102b79036906004016111fd565b6001549096906001600160a01b0316803b1561009f578761032f610341926103158a6103828e6103536040519889978896879663a7fac59b60e01b8852306004890152602435602489015261014060448901526101448801906110f6565b60643560648801526003198782030160848801528c6110f6565b8581036003190160a48701528c6110f6565b8481036003190160c48601528c6110f6565b6001600160a01b0391821660e4850152908c166101048401528281036003190161012484015260a051966110f6565b039160a051905af18015610c8757610c94575b506001546040516398bdf6f560e01b815290602090829060049082906001600160a01b03165afa8015610c875760a051608052610c54575b50608051600019810111610c3c576040516103e781611151565b60001960805101815260018060a01b03861660208201526101443560408201526001606082015260243560808201528660a082015260643560c08201528160e0820152826101008201528361012082015260018060a01b03891661014082015260018060a01b038516610160820152876101808201526000196080510160a05152600260205260a051906040822091815183556001830160018060a01b036020840151166bffffffffffffffffffffffff60a01b82541617905560408201516002840155600383016060830151151560ff801983541691161790556080820151600484015560a08201518051916001600160401b038311610c25575081906104f2600586015461121b565b601f8111610bce575b5060a05190602091601f8411600114610b5c575060a05192610b51575b50508160011b916000199060031b1c19161760058301555b60c0810151600683015560e08101518051906001600160401b0382116108c557819061055f600786015461121b565b601f8111610afa575b5060a05190602091601f8411600114610a88575060a05192610a7d575b50508160011b916000199060031b1c19161760078301555b6101008101518051906001600160401b0382116108c55781906105c3600886015461121b565b601f8111610a26575b5060a05190602091601f84116001146109b4575060a051926109a9575b50508160011b916000199060031b1c19161760088301555b6101208101519081516001600160401b0381116108c557610625600985015461121b565b601f811161095f575b5060a051602090601f83116001146108e8575081906101809460a051926108dd575b50508160011b916000199060031b1c19161760098401555b610140810151600a840180546001600160a01b039283166001600160a01b031991821617909155610160830151600b86018054919093169116179055015180516001600160401b0381116108c5576106c3600c84015461121b565b601f811161087b575b5060a051602090601f831160011461080b57508190600c9360a05192610800575b50508160011b916000199060031b1c1916179101555b60a05180549060001982146107e957506107e09361079c610778979461078e7f030e56767e3831691057be15b21ec49a5780c4acb9bc1255877a0a6535acccc09a989560016107aa960160a051556040519a8b9a610144358c5260243560208d015261014060408d01526101408c01906110f6565b9060643560608c01528a820360808c01526110f6565b9088820360a08a01526110f6565b9086820360c08801526110f6565b6001600160a01b0398891660e08601529088166101008501528381036101208501526080519190971696600019909101956110f6565b0390a360a05180f35b634e487b7160e01b9052601160045260a051602490fd5b015190508c806106ed565b600c8501905260a051602081209293905b601f19851681106108635750918391600193600c95601f1981161061084a575b505050811b01910155610703565b015160001960f88460031b161c191690558c808061083c565b9192602060018192868501518155019401920161081c565b600c840160a0515260a05160208120601f840160051c8101602085106108be575b601f840160051c820181106108b3575050506106cc565b82815560010161089c565b508061089c565b634e487b7160e01b60a051526041600452602460a051fd5b015190508d80610650565b6009869593949501905260a0519160208320925b601f198516811061094757509183916001936101809695601f1981161061092e575b505050811b016009840155610668565b015160001960f88460031b161c191690558d808061091e565b919260206001819286850151815501940192016108fc565b6009850160a0515260a05160208120601f840160051c8101602085106109a2575b601f840160051c820181106109975750505061062e565b828155600101610980565b5080610980565b015190508c806105e9565b60088701905260a0516020812090945091905b601f1984168510610a0b576001945083601f198116106109f2575b505050811b016008830155610601565b015160001960f88460031b161c191690558c80806109e2565b818101518355602094850194600190930192909101906109c7565b9091506008850160a0515260a05160208120601f850160051c810160208610610a76575b9085949392915b601f840160051c82018110610a68575050506105cc565b828155869550600101610a51565b5080610a4a565b015190508c80610585565b60078701905260a0516020812090945091905b601f1984168510610adf576001945083601f19811610610ac6575b505050811b01600783015561059d565b015160001960f88460031b161c191690558c8080610ab6565b81810151835560209485019460019093019290910190610a9b565b9091506007850160a0515260a05160208120601f850160051c810160208610610b4a575b9085949392915b601f840160051c82018110610b3c57505050610568565b828155869550600101610b25565b5080610b1e565b015190508c80610518565b60058701905260a0516020812090945091905b601f1984168510610bb3576001945083601f19811610610b9a575b505050811b016005830155610530565b015160001960f88460031b161c191690558c8080610b8a565b81810151835560209485019460019093019290910190610b6f565b9091506005850160a0515260a05160208120601f850160051c810160208610610c1e575b9085949392915b601f840160051c82018110610c10575050506104fb565b828155869550600101610bf9565b5080610bf2565b634e487b7160e01b9052604160045260a051602490fd5b634e487b7160e01b60a051526011600452602460a051fd5b6020813d602011610c7f575b81610c6d60209383611196565b8101031261009f5751608052886103cd565b3d9150610c60565b6040513d60a051823e3d90fd5b610c9d90611183565b60a05180156103955780fd5b8280fd5b602036600319011261009f576004358060a051526002602052604060a0512060038101805460ff811615610dd95760028301543410610da65760ff191690556001546001600160a01b039190821690813b1561009f57604051916323b872dd60e01b83523060048401523360248401528460448401528260648160a05180945af1918215610c8757600192610d97575b5001541660a051908180809381933415610d8d575b3491f115610c8757604051903482527f980c83f110ab0e223d4b1b9ff101f9a39f78790aa1a2a6717acb325ac172d5c760203393a360a05180f35b6108fc9150610d52565b610da090611183565b84610d3d565b60405162461bcd60e51b815260206004820152600b60248201526a42696420746f6f206c6f7760a81b6044820152606490fd5b60405162461bcd60e51b81526020600482015260126024820152714c697374696e67206e6f742061637469766560701b6044820152606490fd5b3461009f5760a0518060031936011261009c576001546040516001600160a01b039091168152602090f35b3461009f57608036600319011261009f57610e57611136565b506024356001600160a01b0381160361009f576064356001600160401b03811161009f573660238201121561009f57610e9a9036906024816004013591016111b7565b50604051630a85bd0160e11b8152602090f35b903461009c57602036600319011261009c57606061018083610ece81611151565b60a051815260a051602082015260a051604082015260a0518382015260a05160808201528260a082015260a05160c08201528260e0820152826101008201528261012082015260a05161014082015260a051610160820152015260043560a0515260026020526101d1604060a05120611001600c60405192610f4f84611151565b8054845260018101546001600160a01b0316602085015260028101546040850152600381015460ff161515606085015260048101546080850152610f9560058201611255565b60a0850152600681015460c0850152610fb060078201611255565b60e0850152610fc160088201611255565b610100850152610fd360098201611255565b610120850152600a8101546001600160a01b03908116610140860152600b8201541661016085015201611255565b610180820152604051918291602083528051602084015260018060a01b03602082015116604084015260408101516060840152606081015115156080840152608081015160a08401526101806110c26110aa61109261107160a08601516101a060c08a01526101c08901906110f6565b60c086015160e089015260e0860151601f19898303016101008a01526110f6565b610100850151878203601f19016101208901526110f6565b610120840151868203601f19016101408801526110f6565b6101408301516001600160a01b03908116610160878101919091528401511682860152910151838203601f19016101a08501525b919082519283825260005b848110611122575050826000602080949584010152601f8019910116010190565b602081830181015184830182015201611101565b600435906001600160a01b038216820361114c57565b600080fd5b6101a081019081106001600160401b0382111761116d57604052565b634e487b7160e01b600052604160045260246000fd5b6001600160401b03811161116d57604052565b90601f801991011681019081106001600160401b0382111761116d57604052565b9291926001600160401b03821161116d57604051916111e0601f8201601f191660200184611196565b82948184528183011161114c578281602093846000960137010152565b9080601f8301121561114c57816020611218933591016111b7565b90565b90600182811c9216801561124b575b602083101461123557565b634e487b7160e01b600052602260045260246000fd5b91607f169161122a565b90604051918260008254926112698461121b565b9081845260019485811690816000146112d85750600114611295575b505061129392500383611196565b565b9093915060005260209081600020936000915b8183106112c057505061129393508201013880611285565b855488840185015294850194879450918301916112a8565b91505061129394506020925060ff191682840152151560051b820101388061128556fea264697066735822122091862888768086687eb675ac6e980ad54428b760a9b29ff35ef4f7e04189dd3d64736f6c63430008140033",
	"linkReferences": {},
	"deployedLinkReferences": {}
}