{
	"data": {
		"bytecode": {
			"linkReferences": {},
			"object": "608060405234801561000f575f80fd5b506040516200103738038062001037833981810160405281019061003391906100d6565b805f806101000a81548173ffffffffffffffffffffffffffffffffffffffff021916908373ffffffffffffffffffffffffffffffffffffffff16021790555050610101565b5f80fd5b5f73ffffffffffffffffffffffffffffffffffffffff82169050919050565b5f6100a58261007c565b9050919050565b6100b58161009b565b81146100bf575f80fd5b50565b5f815190506100d0816100ac565b92915050565b5f602082840312156100eb576100ea610078565b5b5f6100f8848285016100c2565b91505092915050565b610f28806200010f5f395ff3fe608060405260043610610049575f3560e01c8063150b7a021461004d5780634bb6f06d14610089578063b11f9d22146100b3578063d85e55d0146100cf578063de74e57b146100f7575b5f80fd5b348015610058575f80fd5b50610073600480360381019061006e91906107fa565b610136565b60405161008091906108b4565b60405180910390f35b348015610094575f80fd5b5061009d610149565b6040516100aa9190610928565b60405180910390f35b6100cd60048036038101906100c89190610941565b61016c565b005b3480156100da575f80fd5b506100f560048036038101906100f09190610a0a565b610375565b005b348015610102575f80fd5b5061011d60048036038101906101189190610941565b6105c9565b60405161012d9493929190610bbb565b60405180910390f35b5f63150b7a0260e01b9050949350505050565b5f8054906101000a900473ffffffffffffffffffffffffffffffffffffffff1681565b5f60015f8381526020019081526020015f209050806003015f9054906101000a900460ff166101d0576040517f08c379a00000000000000000000000000000000000000000000000000000000081526004016101c790610c58565b60405180910390fd5b8060020154341015610217576040517f08c379a000000000000000000000000000000000000000000000000000000000815260040161020e90610cc0565b60405180910390fd5b5f816003015f6101000a81548160ff0219169083151502179055505f8054906101000a900473ffffffffffffffffffffffffffffffffffffffff1673ffffffffffffffffffffffffffffffffffffffff166323b872dd3033856040518463ffffffff1660e01b815260040161028e93929190610cde565b5f604051808303815f87803b1580156102a5575f80fd5b505af11580156102b7573d5f803e3d5ffd5b50505050806001015f9054906101000a900473ffffffffffffffffffffffffffffffffffffffff1673ffffffffffffffffffffffffffffffffffffffff166108fc3490811502906040515f60405180830381858888f19350505050158015610321573d5f803e3d5ffd5b503373ffffffffffffffffffffffffffffffffffffffff16827f980c83f110ab0e223d4b1b9ff101f9a39f78790aa1a2a6717acb325ac172d5c7346040516103699190610d13565b60405180910390a35050565b5f8054906101000a900473ffffffffffffffffffffffffffffffffffffffff1673ffffffffffffffffffffffffffffffffffffffff1663a7fac59b308c8c8c8c8c8c8c8c8c6040518b63ffffffff1660e01b81526004016103df9a99989796959493929190610d96565b5f604051808303815f87803b1580156103f6575f80fd5b505af1158015610408573d5f803e3d5ffd5b505050505f60015f8054906101000a900473ffffffffffffffffffffffffffffffffffffffff1673ffffffffffffffffffffffffffffffffffffffff166398bdf6f56040518163ffffffff1660e01b8152600401602060405180830381865afa158015610477573d5f803e3d5ffd5b505050506040513d601f19601f8201168201806040525081019061049b9190610e67565b6104a59190610ebf565b905060405180608001604052808281526020018d73ffffffffffffffffffffffffffffffffffffffff1681526020018381526020016001151581525060015f8381526020019081526020015f205f820151815f01556020820151816001015f6101000a81548173ffffffffffffffffffffffffffffffffffffffff021916908373ffffffffffffffffffffffffffffffffffffffff160217905550604082015181600201556060820151816003015f6101000a81548160ff0219169083151502179055509050508b73ffffffffffffffffffffffffffffffffffffffff16817f807868845918453ada526e4d40a6904919881739f9afa6faec321a955dc2fb13846040516105b39190610d13565b60405180910390a3505050505050505050505050565b6001602052805f5260405f205f91509050805f015490806001015f9054906101000a900473ffffffffffffffffffffffffffffffffffffffff1690806002015490806003015f9054906101000a900460ff16905084565b5f604051905090565b5f80fd5b5f80fd5b5f73ffffffffffffffffffffffffffffffffffffffff82169050919050565b5f61065a82610631565b9050919050565b61066a81610650565b8114610674575f80fd5b50565b5f8135905061068581610661565b92915050565b5f819050919050565b61069d8161068b565b81146106a7575f80fd5b50565b5f813590506106b881610694565b92915050565b5f80fd5b5f80fd5b5f601f19601f8301169050919050565b7f4e487b71000000000000000000000000000000000000000000000000000000005f52604160045260245ffd5b61070c826106c6565b810181811067ffffffffffffffff8211171561072b5761072a6106d6565b5b80604052505050565b5f61073d610620565b90506107498282610703565b919050565b5f67ffffffffffffffff821115610768576107676106d6565b5b610771826106c6565b9050602081019050919050565b828183375f83830152505050565b5f61079e6107998461074e565b610734565b9050828152602081018484840111156107ba576107b96106c2565b5b6107c584828561077e565b509392505050565b5f82601f8301126107e1576107e06106be565b5b81356107f184826020860161078c565b91505092915050565b5f805f806080858703121561081257610811610629565b5b5f61081f87828801610677565b945050602061083087828801610677565b9350506040610841878288016106aa565b925050606085013567ffffffffffffffff8111156108625761086161062d565b5b61086e878288016107cd565b91505092959194509250565b5f7fffffffff0000000000000000000000000000000000000000000000000000000082169050919050565b6108ae8161087a565b82525050565b5f6020820190506108c75f8301846108a5565b92915050565b5f819050919050565b5f6108f06108eb6108e684610631565b6108cd565b610631565b9050919050565b5f610901826108d6565b9050919050565b5f610912826108f7565b9050919050565b61092281610908565b82525050565b5f60208201905061093b5f830184610919565b92915050565b5f6020828403121561095657610955610629565b5b5f610963848285016106aa565b91505092915050565b5f67ffffffffffffffff821115610986576109856106d6565b5b61098f826106c6565b9050602081019050919050565b5f6109ae6109a98461096c565b610734565b9050828152602081018484840111156109ca576109c96106c2565b5b6109d584828561077e565b509392505050565b5f82601f8301126109f1576109f06106be565b5b8135610a0184826020860161099c565b91505092915050565b5f805f805f805f805f805f6101608c8e031215610a2a57610a29610629565b5b5f610a378e828f01610677565b9b50506020610a488e828f016106aa565b9a505060408c013567ffffffffffffffff811115610a6957610a6861062d565b5b610a758e828f016109dd565b9950506060610a868e828f016106aa565b98505060808c013567ffffffffffffffff811115610aa757610aa661062d565b5b610ab38e828f016109dd565b97505060a08c013567ffffffffffffffff811115610ad457610ad361062d565b5b610ae08e828f016109dd565b96505060c08c013567ffffffffffffffff811115610b0157610b0061062d565b5b610b0d8e828f016109dd565b95505060e0610b1e8e828f01610677565b945050610100610b308e828f01610677565b9350506101208c013567ffffffffffffffff811115610b5257610b5161062d565b5b610b5e8e828f016109dd565b925050610140610b708e828f016106aa565b9150509295989b509295989b9093969950565b610b8c8161068b565b82525050565b610b9b81610650565b82525050565b5f8115159050919050565b610bb581610ba1565b82525050565b5f608082019050610bce5f830187610b83565b610bdb6020830186610b92565b610be86040830185610b83565b610bf56060830184610bac565b95945050505050565b5f82825260208201905092915050565b7f4c697374696e67206e6f742061637469766500000000000000000000000000005f82015250565b5f610c42601283610bfe565b9150610c4d82610c0e565b602082019050919050565b5f6020820190508181035f830152610c6f81610c36565b9050919050565b7f42696420746f6f206c6f770000000000000000000000000000000000000000005f82015250565b5f610caa600b83610bfe565b9150610cb582610c76565b602082019050919050565b5f6020820190508181035f830152610cd781610c9e565b9050919050565b5f606082019050610cf15f830186610b92565b610cfe6020830185610b92565b610d0b6040830184610b83565b949350505050565b5f602082019050610d265f830184610b83565b92915050565b5f81519050919050565b5f5b83811015610d53578082015181840152602081019050610d38565b5f8484015250505050565b5f610d6882610d2c565b610d728185610bfe565b9350610d82818560208601610d36565b610d8b816106c6565b840191505092915050565b5f61014082019050610daa5f83018d610b92565b610db7602083018c610b83565b8181036040830152610dc9818b610d5e565b9050610dd8606083018a610b83565b8181036080830152610dea8189610d5e565b905081810360a0830152610dfe8188610d5e565b905081810360c0830152610e128187610d5e565b9050610e2160e0830186610b92565b610e2f610100830185610b92565b818103610120830152610e428184610d5e565b90509b9a5050505050505050505050565b5f81519050610e6181610694565b92915050565b5f60208284031215610e7c57610e7b610629565b5b5f610e8984828501610e53565b91505092915050565b7f4e487b71000000000000000000000000000000000000000000000000000000005f52601160045260245ffd5b5f610ec98261068b565b9150610ed48361068b565b9250828203905081811115610eec57610eeb610e92565b5b9291505056fea26469706673582212209393980878f167c3356b4d27c342b2089209922112561947d6d6e1d3c1ef76b464736f6c63430008140033",
			"opcodes": "PUSH1 0x80 PUSH1 0x40 MSTORE CALLVALUE DUP1 ISZERO PUSH2 0xF JUMPI PUSH0 DUP1 REVERT JUMPDEST POP PUSH1 0x40 MLOAD PUSH3 0x1037 CODESIZE SUB DUP1 PUSH3 0x1037 DUP4 CODECOPY DUP2 DUP2 ADD PUSH1 0x40 MSTORE DUP2 ADD SWAP1 PUSH2 0x33 SWAP2 SWAP1 PUSH2 0xD6 JUMP JUMPDEST DUP1 PUSH0 DUP1 PUSH2 0x100 EXP DUP2 SLOAD DUP2 PUSH20 0xFFFFFFFFFFFFFFFFFFFFFFFFFFFFFFFFFFFFFFFF MUL NOT AND SWAP1 DUP4 PUSH20 0xFFFFFFFFFFFFFFFFFFFFFFFFFFFFFFFFFFFFFFFF AND MUL OR SWAP1 SSTORE POP POP PUSH2 0x101 JUMP JUMPDEST PUSH0 DUP1 REVERT JUMPDEST PUSH0 PUSH20 0xFFFFFFFFFFFFFFFFFFFFFFFFFFFFFFFFFFFFFFFF DUP3 AND SWAP1 POP SWAP2 SWAP1 POP JUMP JUMPDEST PUSH0 PUSH2 0xA5 DUP3 PUSH2 0x7C JUMP JUMPDEST SWAP1 POP SWAP2 SWAP1 POP JUMP JUMPDEST PUSH2 0xB5 DUP2 PUSH2 0x9B JUMP JUMPDEST DUP2 EQ PUSH2 0xBF JUMPI PUSH0 DUP1 REVERT JUMPDEST POP JUMP JUMPDEST PUSH0 DUP2 MLOAD SWAP1 POP PUSH2 0xD0 DUP2 PUSH2 0xAC JUMP JUMPDEST SWAP3 SWAP2 POP POP JUMP JUMPDEST PUSH0 PUSH1 0x20 DUP3 DUP5 SUB SLT ISZERO PUSH2 0xEB JUMPI PUSH2 0xEA PUSH2 0x78 JUMP JUMPDEST JUMPDEST PUSH0 PUSH2 0xF8 DUP5 DUP3 DUP6 ADD PUSH2 0xC2 JUMP JUMPDEST SWAP2 POP POP SWAP3 SWAP2 POP POP JUMP JUMPDEST PUSH2 0xF28 DUP1 PUSH3 0x10F PUSH0 CODECOPY PUSH0 RETURN INVALID PUSH1 0x80 PUSH1 0x40 MSTORE PUSH1 0x4 CALLDATASIZE LT PUSH2 0x49 JUMPI PUSH0 CALLDATALOAD PUSH1 0xE0 SHR DUP1 PUSH4 0x150B7A02 EQ PUSH2 0x4D JUMPI DUP1 PUSH4 0x4BB6F06D EQ PUSH2 0x89 JUMPI DUP1 PUSH4 0xB11F9D22 EQ PUSH2 0xB3 JUMPI DUP1 PUSH4 0xD85E55D0 EQ PUSH2 0xCF JUMPI DUP1 PUSH4 0xDE74E57B EQ PUSH2 0xF7 JUMPI JUMPDEST PUSH0 DUP1 REVERT JUMPDEST CALLVALUE DUP1 ISZERO PUSH2 0x58 JUMPI PUSH0 DUP1 REVERT JUMPDEST POP PUSH2 0x73 PUSH1 0x4 DUP1 CALLDATASIZE SUB DUP2 ADD SWAP1 PUSH2 0x6E SWAP2 SWAP1 PUSH2 0x7FA JUMP JUMPDEST PUSH2 0x136 JUMP JUMPDEST PUSH1 0x40 MLOAD PUSH2 0x80 SWAP2 SWAP1 PUSH2 0x8B4 JUMP JUMPDEST PUSH1 0x40 MLOAD DUP1 SWAP2 SUB SWAP1 RETURN JUMPDEST CALLVALUE DUP1 ISZERO PUSH2 0x94 JUMPI PUSH0 DUP1 REVERT JUMPDEST POP PUSH2 0x9D PUSH2 0x149 JUMP JUMPDEST PUSH1 0x40 MLOAD PUSH2 0xAA SWAP2 SWAP1 PUSH2 0x928 JUMP JUMPDEST PUSH1 0x40 MLOAD DUP1 SWAP2 SUB SWAP1 RETURN JUMPDEST PUSH2 0xCD PUSH1 0x4 DUP1 CALLDATASIZE SUB DUP2 ADD SWAP1 PUSH2 0xC8 SWAP2 SWAP1 PUSH2 0x941 JUMP JUMPDEST PUSH2 0x16C JUMP JUMPDEST STOP JUMPDEST CALLVALUE DUP1 ISZERO PUSH2 0xDA JUMPI PUSH0 DUP1 REVERT JUMPDEST POP PUSH2 0xF5 PUSH1 0x4 DUP1 CALLDATASIZE SUB DUP2 ADD SWAP1 PUSH2 0xF0 SWAP2 SWAP1 PUSH2 0xA0A JUMP JUMPDEST PUSH2 0x375 JUMP JUMPDEST STOP JUMPDEST CALLVALUE DUP1 ISZERO PUSH2 0x102 JUMPI PUSH0 DUP1 REVERT JUMPDEST POP PUSH2 0x11D PUSH1 0x4 DUP1 CALLDATASIZE SUB DUP2 ADD SWAP1 PUSH2 0x118 SWAP2 SWAP1 PUSH2 0x941 JUMP JUMPDEST PUSH2 0x5C9 JUMP JUMPDEST PUSH1 0x40 MLOAD PUSH2 0x12D SWAP5 SWAP4 SWAP3 SWAP2 SWAP1 PUSH2 0xBBB JUMP JUMPDEST PUSH1 0x40 MLOAD DUP1 SWAP2 SUB SWAP1 RETURN JUMPDEST PUSH0 PUSH4 0x150B7A02 PUSH1 0xE0 SHL SWAP1 POP SWAP5 SWAP4 POP POP POP POP JUMP JUMPDEST PUSH0 DUP1 SLOAD SWAP1 PUSH2 0x100 EXP SWAP1 DIV PUSH20 0xFFFFFFFFFFFFFFFFFFFFFFFFFFFFFFFFFFFFFFFF AND DUP2 JUMP JUMPDEST PUSH0 PUSH1 0x1 PUSH0 DUP4 DUP2 MSTORE PUSH1 0x20 ADD SWAP1 DUP2 MSTORE PUSH1 0x20 ADD PUSH0 KECCAK256 SWAP1 POP DUP1 PUSH1 0x3 ADD PUSH0 SWAP1 SLOAD SWAP1 PUSH2 0x100 EXP SWAP1 DIV PUSH1 0xFF AND PUSH2 0x1D0 JUMPI PUSH1 0x40 MLOAD PUSH32 0x8C379A000000000000000000000000000000000000000000000000000000000 DUP2 MSTORE PUSH1 0x4 ADD PUSH2 0x1C7 SWAP1 PUSH2 0xC58 JUMP JUMPDEST PUSH1 0x40 MLOAD DUP1 SWAP2 SUB SWAP1 REVERT JUMPDEST DUP1 PUSH1 0x2 ADD SLOAD CALLVALUE LT ISZERO PUSH2 0x217 JUMPI PUSH1 0x40 MLOAD PUSH32 0x8C379A000000000000000000000000000000000000000000000000000000000 DUP2 MSTORE PUSH1 0x4 ADD PUSH2 0x20E SWAP1 PUSH2 0xCC0 JUMP JUMPDEST PUSH1 0x40 MLOAD DUP1 SWAP2 SUB SWAP1 REVERT JUMPDEST PUSH0 DUP2 PUSH1 0x3 ADD PUSH0 PUSH2 0x100 EXP DUP2 SLOAD DUP2 PUSH1 0xFF MUL NOT AND SWAP1 DUP4 ISZERO ISZERO MUL OR SWAP1 SSTORE POP PUSH0 DUP1 SLOAD SWAP1 PUSH2 0x100 EXP SWAP1 DIV PUSH20 0xFFFFFFFFFFFFFFFFFFFFFFFFFFFFFFFFFFFFFFFF AND PUSH20 0xFFFFFFFFFFFFFFFFFFFFFFFFFFFFFFFFFFFFFFFF AND PUSH4 0x23B872DD ADDRESS CALLER DUP6 PUSH1 0x40 MLOAD DUP5 PUSH4 0xFFFFFFFF AND PUSH1 0xE0 SHL DUP2 MSTORE PUSH1 0x4 ADD PUSH2 0x28E SWAP4 SWAP3 SWAP2 SWAP1 PUSH2 0xCDE JUMP JUMPDEST PUSH0 PUSH1 0x40 MLOAD DUP1 DUP4 SUB DUP2 PUSH0 DUP8 DUP1 EXTCODESIZE ISZERO DUP1 ISZERO PUSH2 0x2A5 JUMPI PUSH0 DUP1 REVERT JUMPDEST POP GAS CALL ISZERO DUP1 ISZERO PUSH2 0x2B7 JUMPI RETURNDATASIZE PUSH0 DUP1 RETURNDATACOPY RETURNDATASIZE PUSH0 REVERT JUMPDEST POP POP POP POP DUP1 PUSH1 0x1 ADD PUSH0 SWAP1 SLOAD SWAP1 PUSH2 0x100 EXP SWAP1 DIV PUSH20 0xFFFFFFFFFFFFFFFFFFFFFFFFFFFFFFFFFFFFFFFF AND PUSH20 0xFFFFFFFFFFFFFFFFFFFFFFFFFFFFFFFFFFFFFFFF AND PUSH2 0x8FC CALLVALUE SWAP1 DUP2 ISZERO MUL SWAP1 PUSH1 0x40 MLOAD PUSH0 PUSH1 0x40 MLOAD DUP1 DUP4 SUB DUP2 DUP6 DUP9 DUP9 CALL SWAP4 POP POP POP POP ISZERO DUP1 ISZERO PUSH2 0x321 JUMPI RETURNDATASIZE PUSH0 DUP1 RETURNDATACOPY RETURNDATASIZE PUSH0 REVERT JUMPDEST POP CALLER PUSH20 0xFFFFFFFFFFFFFFFFFFFFFFFFFFFFFFFFFFFFFFFF AND DUP3 PUSH32 0x980C83F110AB0E223D4B1B9FF101F9A39F78790AA1A2A6717ACB325AC172D5C7 CALLVALUE PUSH1 0x40 MLOAD PUSH2 0x369 SWAP2 SWAP1 PUSH2 0xD13 JUMP JUMPDEST PUSH1 0x40 MLOAD DUP1 SWAP2 SUB SWAP1 LOG3 POP POP JUMP JUMPDEST PUSH0 DUP1 SLOAD SWAP1 PUSH2 0x100 EXP SWAP1 DIV PUSH20 0xFFFFFFFFFFFFFFFFFFFFFFFFFFFFFFFFFFFFFFFF AND PUSH20 0xFFFFFFFFFFFFFFFFFFFFFFFFFFFFFFFFFFFFFFFF AND PUSH4 0xA7FAC59B ADDRESS DUP13 DUP13 DUP13 DUP13 DUP13 DUP13 DUP13 DUP13 DUP13 PUSH1 0x40 MLOAD DUP12 PUSH4 0xFFFFFFFF AND PUSH1 0xE0 SHL DUP2 MSTORE PUSH1 0x4 ADD PUSH2 0x3DF SWAP11 SWAP10 SWAP9 SWAP8 SWAP7 SWAP6 SWAP5 SWAP4 SWAP3 SWAP2 SWAP1 PUSH2 0xD96 JUMP JUMPDEST PUSH0 PUSH1 0x40 MLOAD DUP1 DUP4 SUB DUP2 PUSH0 DUP8 DUP1 EXTCODESIZE ISZERO DUP1 ISZERO PUSH2 0x3F6 JUMPI PUSH0 DUP1 REVERT JUMPDEST POP GAS CALL ISZERO DUP1 ISZERO PUSH2 0x408 JUMPI RETURNDATASIZE PUSH0 DUP1 RETURNDATACOPY RETURNDATASIZE PUSH0 REVERT JUMPDEST POP POP POP POP PUSH0 PUSH1 0x1 PUSH0 DUP1 SLOAD SWAP1 PUSH2 0x100 EXP SWAP1 DIV PUSH20 0xFFFFFFFFFFFFFFFFFFFFFFFFFFFFFFFFFFFFFFFF AND PUSH20 0xFFFFFFFFFFFFFFFFFFFFFFFFFFFFFFFFFFFFFFFF AND PUSH4 0x98BDF6F5 PUSH1 0x40 MLOAD DUP2 PUSH4 0xFFFFFFFF AND PUSH1 0xE0 SHL DUP2 MSTORE PUSH1 0x4 ADD PUSH1 0x20 PUSH1 0x40 MLOAD DUP1 DUP4 SUB DUP2 DUP7 GAS STATICCALL ISZERO DUP1 ISZERO PUSH2 0x477 JUMPI RETURNDATASIZE PUSH0 DUP1 RETURNDATACOPY RETURNDATASIZE PUSH0 REVERT JUMPDEST POP POP POP POP PUSH1 0x40 MLOAD RETURNDATASIZE PUSH1 0x1F NOT PUSH1 0x1F DUP3 ADD AND DUP3 ADD DUP1 PUSH1 0x40 MSTORE POP DUP2 ADD SWAP1 PUSH2 0x49B SWAP2 SWAP1 PUSH2 0xE67 JUMP JUMPDEST PUSH2 0x4A5 SWAP2 SWAP1 PUSH2 0xEBF JUMP JUMPDEST SWAP1 POP PUSH1 0x40 MLOAD DUP1 PUSH1 0x80 ADD PUSH1 0x40 MSTORE DUP1 DUP3 DUP2 MSTORE PUSH1 0x20 ADD DUP14 PUSH20 0xFFFFFFFFFFFFFFFFFFFFFFFFFFFFFFFFFFFFFFFF AND DUP2 MSTORE PUSH1 0x20 ADD DUP4 DUP2 MSTORE PUSH1 0x20 ADD PUSH1 0x1 ISZERO ISZERO DUP2 MSTORE POP PUSH1 0x1 PUSH0 DUP4 DUP2 MSTORE PUSH1 0x20 ADD SWAP1 DUP2 MSTORE PUSH1 0x20 ADD PUSH0 KECCAK256 PUSH0 DUP3 ADD MLOAD DUP2 PUSH0 ADD SSTORE PUSH1 0x20 DUP3 ADD MLOAD DUP2 PUSH1 0x1 ADD PUSH0 PUSH2 0x100 EXP DUP2 SLOAD DUP2 PUSH20 0xFFFFFFFFFFFFFFFFFFFFFFFFFFFFFFFFFFFFFFFF MUL NOT AND SWAP1 DUP4 PUSH20 0xFFFFFFFFFFFFFFFFFFFFFFFFFFFFFFFFFFFFFFFF AND MUL OR SWAP1 SSTORE POP PUSH1 0x40 DUP3 ADD MLOAD DUP2 PUSH1 0x2 ADD SSTORE PUSH1 0x60 DUP3 ADD MLOAD DUP2 PUSH1 0x3 ADD PUSH0 PUSH2 0x100 EXP DUP2 SLOAD DUP2 PUSH1 0xFF MUL NOT AND SWAP1 DUP4 ISZERO ISZERO MUL OR SWAP1 SSTORE POP SWAP1 POP POP DUP12 PUSH20 0xFFFFFFFFFFFFFFFFFFFFFFFFFFFFFFFFFFFFFFFF AND DUP2 PUSH32 0x807868845918453ADA526E4D40A6904919881739F9AFA6FAEC321A955DC2FB13 DUP5 PUSH1 0x40 MLOAD PUSH2 0x5B3 SWAP2 SWAP1 PUSH2 0xD13 JUMP JUMPDEST PUSH1 0x40 MLOAD DUP1 SWAP2 SUB SWAP1 LOG3 POP POP POP POP POP POP POP POP POP POP POP POP JUMP JUMPDEST PUSH1 0x1 PUSH1 0x20 MSTORE DUP1 PUSH0 MSTORE PUSH1 0x40 PUSH0 KECCAK256 PUSH0 SWAP2 POP SWAP1 POP DUP1 PUSH0 ADD SLOAD SWAP1 DUP1 PUSH1 0x1 ADD PUSH0 SWAP1 SLOAD SWAP1 PUSH2 0x100 EXP SWAP1 DIV PUSH20 0xFFFFFFFFFFFFFFFFFFFFFFFFFFFFFFFFFFFFFFFF AND SWAP1 DUP1 PUSH1 0x2 ADD SLOAD SWAP1 DUP1 PUSH1 0x3 ADD PUSH0 SWAP1 SLOAD SWAP1 PUSH2 0x100 EXP SWAP1 DIV PUSH1 0xFF AND SWAP1 POP DUP5 JUMP JUMPDEST PUSH0 PUSH1 0x40 MLOAD SWAP1 POP SWAP1 JUMP JUMPDEST PUSH0 DUP1 REVERT JUMPDEST PUSH0 DUP1 REVERT JUMPDEST PUSH0 PUSH20 0xFFFFFFFFFFFFFFFFFFFFFFFFFFFFFFFFFFFFFFFF DUP3 AND SWAP1 POP SWAP2 SWAP1 POP JUMP JUMPDEST PUSH0 PUSH2 0x65A DUP3 PUSH2 0x631 JUMP JUMPDEST SWAP1 POP SWAP2 SWAP1 POP JUMP JUMPDEST PUSH2 0x66A DUP2 PUSH2 0x650 JUMP JUMPDEST DUP2 EQ PUSH2 0x674 JUMPI PUSH0 DUP1 REVERT JUMPDEST POP JUMP JUMPDEST PUSH0 DUP2 CALLDATALOAD SWAP1 POP PUSH2 0x685 DUP2 PUSH2 0x661 JUMP JUMPDEST SWAP3 SWAP2 POP POP JUMP JUMPDEST PUSH0 DUP2 SWAP1 POP SWAP2 SWAP1 POP JUMP JUMPDEST PUSH2 0x69D DUP2 PUSH2 0x68B JUMP JUMPDEST DUP2 EQ PUSH2 0x6A7 JUMPI PUSH0 DUP1 REVERT JUMPDEST POP JUMP JUMPDEST PUSH0 DUP2 CALLDATALOAD SWAP1 POP PUSH2 0x6B8 DUP2 PUSH2 0x694 JUMP JUMPDEST SWAP3 SWAP2 POP POP JUMP JUMPDEST PUSH0 DUP1 REVERT JUMPDEST PUSH0 DUP1 REVERT JUMPDEST PUSH0 PUSH1 0x1F NOT PUSH1 0x1F DUP4 ADD AND SWAP1 POP SWAP2 SWAP1 POP JUMP JUMPDEST PUSH32 0x4E487B7100000000000000000000000000000000000000000000000000000000 PUSH0 MSTORE PUSH1 0x41 PUSH1 0x4 MSTORE PUSH1 0x24 PUSH0 REVERT JUMPDEST PUSH2 0x70C DUP3 PUSH2 0x6C6 JUMP JUMPDEST DUP2 ADD DUP2 DUP2 LT PUSH8 0xFFFFFFFFFFFFFFFF DUP3 GT OR ISZERO PUSH2 0x72B JUMPI PUSH2 0x72A PUSH2 0x6D6 JUMP JUMPDEST JUMPDEST DUP1 PUSH1 0x40 MSTORE POP POP POP JUMP JUMPDEST PUSH0 PUSH2 0x73D PUSH2 0x620 JUMP JUMPDEST SWAP1 POP PUSH2 0x749 DUP3 DUP3 PUSH2 0x703 JUMP JUMPDEST SWAP2 SWAP1 POP JUMP JUMPDEST PUSH0 PUSH8 0xFFFFFFFFFFFFFFFF DUP3 GT ISZERO PUSH2 0x768 JUMPI PUSH2 0x767 PUSH2 0x6D6 JUMP JUMPDEST JUMPDEST PUSH2 0x771 DUP3 PUSH2 0x6C6 JUMP JUMPDEST SWAP1 POP PUSH1 0x20 DUP2 ADD SWAP1 POP SWAP2 SWAP1 POP JUMP JUMPDEST DUP3 DUP2 DUP4 CALLDATACOPY PUSH0 DUP4 DUP4 ADD MSTORE POP POP POP JUMP JUMPDEST PUSH0 PUSH2 0x79E PUSH2 0x799 DUP5 PUSH2 0x74E JUMP JUMPDEST PUSH2 0x734 JUMP JUMPDEST SWAP1 POP DUP3 DUP2 MSTORE PUSH1 0x20 DUP2 ADD DUP5 DUP5 DUP5 ADD GT ISZERO PUSH2 0x7BA JUMPI PUSH2 0x7B9 PUSH2 0x6C2 JUMP JUMPDEST JUMPDEST PUSH2 0x7C5 DUP5 DUP3 DUP6 PUSH2 0x77E JUMP JUMPDEST POP SWAP4 SWAP3 POP POP POP JUMP JUMPDEST PUSH0 DUP3 PUSH1 0x1F DUP4 ADD SLT PUSH2 0x7E1 JUMPI PUSH2 0x7E0 PUSH2 0x6BE JUMP JUMPDEST JUMPDEST DUP2 CALLDATALOAD PUSH2 0x7F1 DUP5 DUP3 PUSH1 0x20 DUP7 ADD PUSH2 0x78C JUMP JUMPDEST SWAP2 POP POP SWAP3 SWAP2 POP POP JUMP JUMPDEST PUSH0 DUP1 PUSH0 DUP1 PUSH1 0x80 DUP6 DUP8 SUB SLT ISZERO PUSH2 0x812 JUMPI PUSH2 0x811 PUSH2 0x629 JUMP JUMPDEST JUMPDEST PUSH0 PUSH2 0x81F DUP8 DUP3 DUP9 ADD PUSH2 0x677 JUMP JUMPDEST SWAP5 POP POP PUSH1 0x20 PUSH2 0x830 DUP8 DUP3 DUP9 ADD PUSH2 0x677 JUMP JUMPDEST SWAP4 POP POP PUSH1 0x40 PUSH2 0x841 DUP8 DUP3 DUP9 ADD PUSH2 0x6AA JUMP JUMPDEST SWAP3 POP POP PUSH1 0x60 DUP6 ADD CALLDATALOAD PUSH8 0xFFFFFFFFFFFFFFFF DUP2 GT ISZERO PUSH2 0x862 JUMPI PUSH2 0x861 PUSH2 0x62D JUMP JUMPDEST JUMPDEST PUSH2 0x86E DUP8 DUP3 DUP9 ADD PUSH2 0x7CD JUMP JUMPDEST SWAP2 POP POP SWAP3 SWAP6 SWAP2 SWAP5 POP SWAP3 POP JUMP JUMPDEST PUSH0 PUSH32 0xFFFFFFFF00000000000000000000000000000000000000000000000000000000 DUP3 AND SWAP1 POP SWAP2 SWAP1 POP JUMP JUMPDEST PUSH2 0x8AE DUP2 PUSH2 0x87A JUMP JUMPDEST DUP3 MSTORE POP POP JUMP JUMPDEST PUSH0 PUSH1 0x20 DUP3 ADD SWAP1 POP PUSH2 0x8C7 PUSH0 DUP4 ADD DUP5 PUSH2 0x8A5 JUMP JUMPDEST SWAP3 SWAP2 POP POP JUMP JUMPDEST PUSH0 DUP2 SWAP1 POP SWAP2 SWAP1 POP JUMP JUMPDEST PUSH0 PUSH2 0x8F0 PUSH2 0x8EB PUSH2 0x8E6 DUP5 PUSH2 0x631 JUMP JUMPDEST PUSH2 0x8CD JUMP JUMPDEST PUSH2 0x631 JUMP JUMPDEST SWAP1 POP SWAP2 SWAP1 POP JUMP JUMPDEST PUSH0 PUSH2 0x901 DUP3 PUSH2 0x8D6 JUMP JUMPDEST SWAP1 POP SWAP2 SWAP1 POP JUMP JUMPDEST PUSH0 PUSH2 0x912 DUP3 PUSH2 0x8F7 JUMP JUMPDEST SWAP1 POP SWAP2 SWAP1 POP JUMP JUMPDEST PUSH2 0x922 DUP2 PUSH2 0x908 JUMP JUMPDEST DUP3 MSTORE POP POP JUMP JUMPDEST PUSH0 PUSH1 0x20 DUP3 ADD SWAP1 POP PUSH2 0x93B PUSH0 DUP4 ADD DUP5 PUSH2 0x919 JUMP JUMPDEST SWAP3 SWAP2 POP POP JUMP JUMPDEST PUSH0 PUSH1 0x20 DUP3 DUP5 SUB SLT ISZERO PUSH2 0x956 JUMPI PUSH2 0x955 PUSH2 0x629 JUMP JUMPDEST JUMPDEST PUSH0 PUSH2 0x963 DUP5 DUP3 DUP6 ADD PUSH2 0x6AA JUMP JUMPDEST SWAP2 POP POP SWAP3 SWAP2 POP POP JUMP JUMPDEST PUSH0 PUSH8 0xFFFFFFFFFFFFFFFF DUP3 GT ISZERO PUSH2 0x986 JUMPI PUSH2 0x985 PUSH2 0x6D6 JUMP JUMPDEST JUMPDEST PUSH2 0x98F DUP3 PUSH2 0x6C6 JUMP JUMPDEST SWAP1 POP PUSH1 0x20 DUP2 ADD SWAP1 POP SWAP2 SWAP1 POP JUMP JUMPDEST PUSH0 PUSH2 0x9AE PUSH2 0x9A9 DUP5 PUSH2 0x96C JUMP JUMPDEST PUSH2 0x734 JUMP JUMPDEST SWAP1 POP DUP3 DUP2 MSTORE PUSH1 0x20 DUP2 ADD DUP5 DUP5 DUP5 ADD GT ISZERO PUSH2 0x9CA JUMPI PUSH2 0x9C9 PUSH2 0x6C2 JUMP JUMPDEST JUMPDEST PUSH2 0x9D5 DUP5 DUP3 DUP6 PUSH2 0x77E JUMP JUMPDEST POP SWAP4 SWAP3 POP POP POP JUMP JUMPDEST PUSH0 DUP3 PUSH1 0x1F DUP4 ADD SLT PUSH2 0x9F1 JUMPI PUSH2 0x9F0 PUSH2 0x6BE JUMP JUMPDEST JUMPDEST DUP2 CALLDATALOAD PUSH2 0xA01 DUP5 DUP3 PUSH1 0x20 DUP7 ADD PUSH2 0x99C JUMP JUMPDEST SWAP2 POP POP SWAP3 SWAP2 POP POP JUMP JUMPDEST PUSH0 DUP1 PUSH0 DUP1 PUSH0 DUP1 PUSH0 DUP1 PUSH0 DUP1 PUSH0 PUSH2 0x160 DUP13 DUP15 SUB SLT ISZERO PUSH2 0xA2A JUMPI PUSH2 0xA29 PUSH2 0x629 JUMP JUMPDEST JUMPDEST PUSH0 PUSH2 0xA37 DUP15 DUP3 DUP16 ADD PUSH2 0x677 JUMP JUMPDEST SWAP12 POP POP PUSH1 0x20 PUSH2 0xA48 DUP15 DUP3 DUP16 ADD PUSH2 0x6AA JUMP JUMPDEST SWAP11 POP POP PUSH1 0x40 DUP13 ADD CALLDATALOAD PUSH8 0xFFFFFFFFFFFFFFFF DUP2 GT ISZERO PUSH2 0xA69 JUMPI PUSH2 0xA68 PUSH2 0x62D JUMP JUMPDEST JUMPDEST PUSH2 0xA75 DUP15 DUP3 DUP16 ADD PUSH2 0x9DD JUMP JUMPDEST SWAP10 POP POP PUSH1 0x60 PUSH2 0xA86 DUP15 DUP3 DUP16 ADD PUSH2 0x6AA JUMP JUMPDEST SWAP9 POP POP PUSH1 0x80 DUP13 ADD CALLDATALOAD PUSH8 0xFFFFFFFFFFFFFFFF DUP2 GT ISZERO PUSH2 0xAA7 JUMPI PUSH2 0xAA6 PUSH2 0x62D JUMP JUMPDEST JUMPDEST PUSH2 0xAB3 DUP15 DUP3 DUP16 ADD PUSH2 0x9DD JUMP JUMPDEST SWAP8 POP POP PUSH1 0xA0 DUP13 ADD CALLDATALOAD PUSH8 0xFFFFFFFFFFFFFFFF DUP2 GT ISZERO PUSH2 0xAD4 JUMPI PUSH2 0xAD3 PUSH2 0x62D JUMP JUMPDEST JUMPDEST PUSH2 0xAE0 DUP15 DUP3 DUP16 ADD PUSH2 0x9DD JUMP JUMPDEST SWAP7 POP POP PUSH1 0xC0 DUP13 ADD CALLDATALOAD PUSH8 0xFFFFFFFFFFFFFFFF DUP2 GT ISZERO PUSH2 0xB01 JUMPI PUSH2 0xB00 PUSH2 0x62D JUMP JUMPDEST JUMPDEST PUSH2 0xB0D DUP15 DUP3 DUP16 ADD PUSH2 0x9DD JUMP JUMPDEST SWAP6 POP POP PUSH1 0xE0 PUSH2 0xB1E DUP15 DUP3 DUP16 ADD PUSH2 0x677 JUMP JUMPDEST SWAP5 POP POP PUSH2 0x100 PUSH2 0xB30 DUP15 DUP3 DUP16 ADD PUSH2 0x677 JUMP JUMPDEST SWAP4 POP POP PUSH2 0x120 DUP13 ADD CALLDATALOAD PUSH8 0xFFFFFFFFFFFFFFFF DUP2 GT ISZERO PUSH2 0xB52 JUMPI PUSH2 0xB51 PUSH2 0x62D JUMP JUMPDEST JUMPDEST PUSH2 0xB5E DUP15 DUP3 DUP16 ADD PUSH2 0x9DD JUMP JUMPDEST SWAP3 POP POP PUSH2 0x140 PUSH2 0xB70 DUP15 DUP3 DUP16 ADD PUSH2 0x6AA JUMP JUMPDEST SWAP2 POP POP SWAP3 SWAP6 SWAP9 SWAP12 POP SWAP3 SWAP6 SWAP9 SWAP12 SWAP1 SWAP4 SWAP7 SWAP10 POP JUMP JUMPDEST PUSH2 0xB8C DUP2 PUSH2 0x68B JUMP JUMPDEST DUP3 MSTORE POP POP JUMP JUMPDEST PUSH2 0xB9B DUP2 PUSH2 0x650 JUMP JUMPDEST DUP3 MSTORE POP POP JUMP JUMPDEST PUSH0 DUP2 ISZERO ISZERO SWAP1 POP SWAP2 SWAP1 POP JUMP JUMPDEST PUSH2 0xBB5 DUP2 PUSH2 0xBA1 JUMP JUMPDEST DUP3 MSTORE POP POP JUMP JUMPDEST PUSH0 PUSH1 0x80 DUP3 ADD SWAP1 POP PUSH2 0xBCE PUSH0 DUP4 ADD DUP8 PUSH2 0xB83 JUMP JUMPDEST PUSH2 0xBDB PUSH1 0x20 DUP4 ADD DUP7 PUSH2 0xB92 JUMP JUMPDEST PUSH2 0xBE8 PUSH1 0x40 DUP4 ADD DUP6 PUSH2 0xB83 JUMP JUMPDEST PUSH2 0xBF5 PUSH1 0x60 DUP4 ADD DUP5 PUSH2 0xBAC JUMP JUMPDEST SWAP6 SWAP5 POP POP POP POP POP JUMP JUMPDEST PUSH0 DUP3 DUP3 MSTORE PUSH1 0x20 DUP3 ADD SWAP1 POP SWAP3 SWAP2 POP POP JUMP JUMPDEST PUSH32 0x4C697374696E67206E6F74206163746976650000000000000000000000000000 PUSH0 DUP3 ADD MSTORE POP JUMP JUMPDEST PUSH0 PUSH2 0xC42 PUSH1 0x12 DUP4 PUSH2 0xBFE JUMP JUMPDEST SWAP2 POP PUSH2 0xC4D DUP3 PUSH2 0xC0E JUMP JUMPDEST PUSH1 0x20 DUP3 ADD SWAP1 POP SWAP2 SWAP1 POP JUMP JUMPDEST PUSH0 PUSH1 0x20 DUP3 ADD SWAP1 POP DUP2 DUP2 SUB PUSH0 DUP4 ADD MSTORE PUSH2 0xC6F DUP2 PUSH2 0xC36 JUMP JUMPDEST SWAP1 POP SWAP2 SWAP1 POP JUMP JUMPDEST PUSH32 0x42696420746F6F206C6F77000000000000000000000000000000000000000000 PUSH0 DUP3 ADD MSTORE POP JUMP JUMPDEST PUSH0 PUSH2 0xCAA PUSH1 0xB DUP4 PUSH2 0xBFE JUMP JUMPDEST SWAP2 POP PUSH2 0xCB5 DUP3 PUSH2 0xC76 JUMP JUMPDEST PUSH1 0x20 DUP3 ADD SWAP1 POP SWAP2 SWAP1 POP JUMP JUMPDEST PUSH0 PUSH1 0x20 DUP3 ADD SWAP1 POP DUP2 DUP2 SUB PUSH0 DUP4 ADD MSTORE PUSH2 0xCD7 DUP2 PUSH2 0xC9E JUMP JUMPDEST SWAP1 POP SWAP2 SWAP1 POP JUMP JUMPDEST PUSH0 PUSH1 0x60 DUP3 ADD SWAP1 POP PUSH2 0xCF1 PUSH0 DUP4 ADD DUP7 PUSH2 0xB92 JUMP JUMPDEST PUSH2 0xCFE PUSH1 0x20 DUP4 ADD DUP6 PUSH2 0xB92 JUMP JUMPDEST PUSH2 0xD0B PUSH1 0x40 DUP4 ADD DUP5 PUSH2 0xB83 JUMP JUMPDEST SWAP5 SWAP4 POP POP POP POP JUMP JUMPDEST PUSH0 PUSH1 0x20 DUP3 ADD SWAP1 POP PUSH2 0xD26 PUSH0 DUP4 ADD DUP5 PUSH2 0xB83 JUMP JUMPDEST SWAP3 SWAP2 POP POP JUMP JUMPDEST PUSH0 DUP2 MLOAD SWAP1 POP SWAP2 SWAP1 POP JUMP JUMPDEST PUSH0 JUMPDEST DUP4 DUP2 LT ISZERO PUSH2 0xD53 JUMPI DUP1 DUP3 ADD MLOAD DUP2 DUP5 ADD MSTORE PUSH1 0x20 DUP2 ADD SWAP1 POP PUSH2 0xD38 JUMP JUMPDEST PUSH0 DUP5 DUP5 ADD MSTORE POP POP POP POP JUMP JUMPDEST PUSH0 PUSH2 0xD68 DUP3 PUSH2 0xD2C JUMP JUMPDEST PUSH2 0xD72 DUP2 DUP6 PUSH2 0xBFE JUMP JUMPDEST SWAP4 POP PUSH2 0xD82 DUP2 DUP6 PUSH1 0x20 DUP7 ADD PUSH2 0xD36 JUMP JUMPDEST PUSH2 0xD8B DUP2 PUSH2 0x6C6 JUMP JUMPDEST DUP5 ADD SWAP2 POP POP SWAP3 SWAP2 POP POP JUMP JUMPDEST PUSH0 PUSH2 0x140 DUP3 ADD SWAP1 POP PUSH2 0xDAA PUSH0 DUP4 ADD DUP14 PUSH2 0xB92 JUMP JUMPDEST PUSH2 0xDB7 PUSH1 0x20 DUP4 ADD DUP13 PUSH2 0xB83 JUMP JUMPDEST DUP2 DUP2 SUB PUSH1 0x40 DUP4 ADD MSTORE PUSH2 0xDC9 DUP2 DUP12 PUSH2 0xD5E JUMP JUMPDEST SWAP1 POP PUSH2 0xDD8 PUSH1 0x60 DUP4 ADD DUP11 PUSH2 0xB83 JUMP JUMPDEST DUP2 DUP2 SUB PUSH1 0x80 DUP4 ADD MSTORE PUSH2 0xDEA DUP2 DUP10 PUSH2 0xD5E JUMP JUMPDEST SWAP1 POP DUP2 DUP2 SUB PUSH1 0xA0 DUP4 ADD MSTORE PUSH2 0xDFE DUP2 DUP9 PUSH2 0xD5E JUMP JUMPDEST SWAP1 POP DUP2 DUP2 SUB PUSH1 0xC0 DUP4 ADD MSTORE PUSH2 0xE12 DUP2 DUP8 PUSH2 0xD5E JUMP JUMPDEST SWAP1 POP PUSH2 0xE21 PUSH1 0xE0 DUP4 ADD DUP7 PUSH2 0xB92 JUMP JUMPDEST PUSH2 0xE2F PUSH2 0x100 DUP4 ADD DUP6 PUSH2 0xB92 JUMP JUMPDEST DUP2 DUP2 SUB PUSH2 0x120 DUP4 ADD MSTORE PUSH2 0xE42 DUP2 DUP5 PUSH2 0xD5E JUMP JUMPDEST SWAP1 POP SWAP12 SWAP11 POP POP POP POP POP POP POP POP POP POP POP JUMP JUMPDEST PUSH0 DUP2 MLOAD SWAP1 POP PUSH2 0xE61 DUP2 PUSH2 0x694 JUMP JUMPDEST SWAP3 SWAP2 POP POP JUMP JUMPDEST PUSH0 PUSH1 0x20 DUP3 DUP5 SUB SLT ISZERO PUSH2 0xE7C JUMPI PUSH2 0xE7B PUSH2 0x629 JUMP JUMPDEST JUMPDEST PUSH0 PUSH2 0xE89 DUP5 DUP3 DUP6 ADD PUSH2 0xE53 JUMP JUMPDEST SWAP2 POP POP SWAP3 SWAP2 POP POP JUMP JUMPDEST PUSH32 0x4E487B7100000000000000000000000000000000000000000000000000000000 PUSH0 MSTORE PUSH1 0x11 PUSH1 0x4 MSTORE PUSH1 0x24 PUSH0 REVERT JUMPDEST PUSH0 PUSH2 0xEC9 DUP3 PUSH2 0x68B JUMP JUMPDEST SWAP2 POP PUSH2 0xED4 DUP4 PUSH2 0x68B JUMP JUMPDEST SWAP3 POP DUP3 DUP3 SUB SWAP1 POP DUP2 DUP2 GT ISZERO PUSH2 0xEEC JUMPI PUSH2 0xEEB PUSH2 0xE92 JUMP JUMPDEST JUMPDEST SWAP3 SWAP2 POP POP JUMP INVALID LOG2 PUSH5 0x6970667358 0x22 SLT KECCAK256 SWAP4 SWAP4 SWAP9 ADDMOD PUSH25 0xF167C3356B4D27C342B2089209922112561947D6D6E1D3C1EF PUSH23 0xB464736F6C634300081400330000000000000000000000 "
		},
		"gasEstimates": {
			"creation": {
				"codeDepositCost": "776000",
				"executionCost": "infinite",
				"totalCost": "infinite"
			},
			"external": {
				"invoiceNFT()": "infinite",
				"listings(uint256)": "infinite",
				"mintAndListInvoice(address,uint256,string,uint256,string,string,string,address,address,string,uint256)": "infinite",
				"onERC721Received(address,address,uint256,bytes)": "infinite",
				"purchaseInvoice(uint256)": "infinite"
			}
		},
		"methodIdentifiers": {
			"invoiceNFT()": "4bb6f06d",
			"listings(uint256)": "de74e57b",
			"mintAndListInvoice(address,uint256,string,uint256,string,string,string,address,address,string,uint256)": "d85e55d0",
			"onERC721Received(address,address,uint256,bytes)": "150b7a02",
			"purchaseInvoice(uint256)": "b11f9d22"
		}
	},
	"abi": [
		{
			"inputs": [
				{
					"internalType": "address",
					"name": "_invoiceNFT",
					"type": "address"
				}
			],
			"stateMutability": "nonpayable",
			"type": "constructor"
		},
		{
			"anonymous": false,
			"inputs": [
				{
					"indexed": true,
					"internalType": "uint256",
					"name": "tokenId",
					"type": "uint256"
				},
				{
					"indexed": true,
					"internalType": "address",
					"name": "seller",
					"type": "address"
				},
				{
					"indexed": false,
					"internalType": "uint256",
					"name": "minBid",
					"type": "uint256"
				}
			],
			"name": "InvoiceListed",
			"type": "event"
		},
		{
			"anonymous": false,
			"inputs": [
				{
					"indexed": true,
					"internalType": "uint256",
					"name": "tokenId",
					"type": "uint256"
				},
				{
					"indexed": true,
					"internalType": "address",
					"name": "buyer",
					"type": "address"
				},
				{
					"indexed": false,
					"internalType": "uint256",
					"name": "price",
					"type": "uint256"
				}
			],
			"name": "InvoicePurchased",
			"type": "event"
		},
		{
			"inputs": [],
			"name": "invoiceNFT",
			"outputs": [
				{
					"internalType": "contract InvoiceNFT",
					"name": "",
					"type": "address"
				}
			],
			"stateMutability": "view",
			"type": "function"
		},
		{
			"inputs": [
				{
					"internalType": "uint256",
					"name": "",
					"type": "uint256"
				}
			],
			"name": "listings",
			"outputs": [
				{
					"internalType": "uint256",
					"name": "tokenId",
					"type": "uint256"
				},
				{
					"internalType": "address",
					"name": "seller",
					"type": "address"
				},
				{
					"internalType": "uint256",
					"name": "minBid",
					"type": "uint256"
				},
				{
					"internalType": "bool",
					"name": "active",
					"type": "bool"
				}
			],
			"stateMutability": "view",
			"type": "function"
		},
		{
			"inputs": [
				{
					"internalType": "address",
					"name": "to",
					"type": "address"
				},
				{
					"internalType": "uint256",
					"name": "billAmount",
					"type": "uint256"
				},
				{
					"internalType": "string",
					"name": "token",
					"type": "string"
				},
				{
					"internalType": "uint256",
					"name": "dueDate",
					"type": "uint256"
				},
				{
					"internalType": "string",
					"name": "uniqueId",
					"type": "string"
				},
				{
					"internalType": "string",
					"name": "buyer",
					"type": "string"
				},
				{
					"internalType": "string",
					"name": "seller",
					"type": "string"
				},
				{
					"internalType": "address",
					"name": "payer",
					"type": "address"
				},
				{
					"internalType": "address",
					"name": "payee",
					"type": "address"
				},
				{
					"internalType": "string",
					"name": "status",
					"type": "string"
				},
				{
					"internalType": "uint256",
					"name": "minBid",
					"type": "uint256"
				}
			],
			"name": "mintAndListInvoice",
			"outputs": [],
			"stateMutability": "nonpayable",
			"type": "function"
		},
		{
			"inputs": [
				{
					"internalType": "address",
					"name": "",
					"type": "address"
				},
				{
					"internalType": "address",
					"name": "",
					"type": "address"
				},
				{
					"internalType": "uint256",
					"name": "",
					"type": "uint256"
				},
				{
					"internalType": "bytes",
					"name": "",
					"type": "bytes"
				}
			],
			"name": "onERC721Received",
			"outputs": [
				{
					"internalType": "bytes4",
					"name": "",
					"type": "bytes4"
				}
			],
			"stateMutability": "nonpayable",
			"type": "function"
		},
		{
			"inputs": [
				{
					"internalType": "uint256",
					"name": "tokenId",
					"type": "uint256"
				}
			],
			"name": "purchaseInvoice",
			"outputs": [],
			"stateMutability": "payable",
			"type": "function"
		}
	]
}